{
	"contracts/Election.sol": {
		"Election": {
			"abi": [
				{
					"inputs": [
						{
							"internalType": "uint256",
							"name": "",
							"type": "uint256"
						}
					],
					"name": "candidates",
					"outputs": [
						{
							"internalType": "address",
							"name": "id",
							"type": "address"
						},
						{
							"internalType": "string",
							"name": "name",
							"type": "string"
						},
						{
							"internalType": "uint16",
							"name": "voteNumber",
							"type": "uint16"
						},
						{
							"internalType": "string",
							"name": "party",
							"type": "string"
						}
					],
					"stateMutability": "view",
					"type": "function"
				},
				{
					"inputs": [
						{
							"internalType": "uint16",
							"name": "voteNumber",
							"type": "uint16"
						}
					],
					"name": "getCandidateByNumber",
					"outputs": [
						{
							"components": [
								{
									"internalType": "address",
									"name": "id",
									"type": "address"
								},
								{
									"internalType": "string",
									"name": "name",
									"type": "string"
								},
								{
									"internalType": "uint16",
									"name": "voteNumber",
									"type": "uint16"
								},
								{
									"internalType": "string",
									"name": "party",
									"type": "string"
								}
							],
							"internalType": "struct Election.Candidate",
							"name": "",
							"type": "tuple"
						},
						{
							"internalType": "bool",
							"name": "",
							"type": "bool"
						}
					],
					"stateMutability": "view",
					"type": "function"
				},
				{
					"inputs": [],
					"name": "getRole",
					"outputs": [
						{
							"internalType": "string",
							"name": "",
							"type": "string"
						}
					],
					"stateMutability": "view",
					"type": "function"
				},
				{
					"inputs": [],
					"name": "role",
					"outputs": [
						{
							"internalType": "string",
							"name": "",
							"type": "string"
						}
					],
					"stateMutability": "view",
					"type": "function"
				},
				{
					"inputs": [
						{
							"components": [
								{
									"internalType": "address",
									"name": "id",
									"type": "address"
								},
								{
									"internalType": "string",
									"name": "name",
									"type": "string"
								},
								{
									"internalType": "uint16",
									"name": "voteNumber",
									"type": "uint16"
								},
								{
									"internalType": "string",
									"name": "party",
									"type": "string"
								}
							],
							"internalType": "struct Election.Candidate",
							"name": "candidate",
							"type": "tuple"
						}
					],
					"name": "setCandidate",
					"outputs": [],
					"stateMutability": "nonpayable",
					"type": "function"
				},
				{
					"inputs": [
						{
							"internalType": "string",
							"name": "_role",
							"type": "string"
						}
					],
					"name": "setRole",
					"outputs": [],
					"stateMutability": "nonpayable",
					"type": "function"
				},
				{
					"inputs": [
						{
							"internalType": "uint16",
							"name": "voteNumber",
							"type": "uint16"
						}
					],
					"name": "vote",
					"outputs": [
						{
							"components": [
								{
									"internalType": "bool",
									"name": "result",
									"type": "bool"
								},
								{
									"internalType": "string",
									"name": "error",
									"type": "string"
								}
							],
							"internalType": "struct Election.VoteFeedBack",
							"name": "",
							"type": "tuple"
						}
					],
					"stateMutability": "view",
					"type": "function"
				}
			],
			"devdoc": {
				"kind": "dev",
				"methods": {},
				"version": 1
			},
			"evm": {
				"assembly": "    /* \"contracts/Election.sol\":215:1965  contract Election {... */\n  mstore(0x40, 0x80)\n  callvalue\n  dup1\n  iszero\n  tag_1\n  jumpi\n  0x00\n  dup1\n  revert\ntag_1:\n  pop\n  dataSize(sub_0)\n  dup1\n  dataOffset(sub_0)\n  0x00\n  codecopy\n  0x00\n  return\nstop\n\nsub_0: assembly {\n        /* \"contracts/Election.sol\":215:1965  contract Election {... */\n      mstore(0x40, 0x80)\n      callvalue\n      dup1\n      iszero\n      tag_1\n      jumpi\n      0x00\n      dup1\n      revert\n    tag_1:\n      pop\n      jumpi(tag_2, lt(calldatasize, 0x04))\n      shr(0xe0, calldataload(0x00))\n      dup1\n      0x8e0cfbc2\n      gt\n      tag_10\n      jumpi\n      dup1\n      0x8e0cfbc2\n      eq\n      tag_6\n      jumpi\n      dup1\n      0xce21f15a\n      eq\n      tag_7\n      jumpi\n      dup1\n      0xddb6e116\n      eq\n      tag_8\n      jumpi\n      dup1\n      0xfde08174\n      eq\n      tag_9\n      jumpi\n      jump(tag_2)\n    tag_10:\n      dup1\n      0x10055c1d\n      eq\n      tag_3\n      jumpi\n      dup1\n      0x3477ee2e\n      eq\n      tag_4\n      jumpi\n      dup1\n      0x74c53f56\n      eq\n      tag_5\n      jumpi\n    tag_2:\n      0x00\n      dup1\n      revert\n        /* \"contracts/Election.sol\":239:257  string public role */\n    tag_3:\n      tag_11\n      tag_12\n      jump\t// in\n    tag_11:\n      mload(0x40)\n      tag_13\n      swap2\n      swap1\n      tag_14\n      jump\t// in\n    tag_13:\n      mload(0x40)\n      dup1\n      swap2\n      sub\n      swap1\n      return\n        /* \"contracts/Election.sol\":263:292  Candidate[] public candidates */\n    tag_4:\n      tag_15\n      0x04\n      dup1\n      calldatasize\n      sub\n      dup2\n      add\n      swap1\n      tag_16\n      swap2\n      swap1\n      tag_17\n      jump\t// in\n    tag_16:\n      tag_18\n      jump\t// in\n    tag_15:\n      mload(0x40)\n      tag_19\n      swap5\n      swap4\n      swap3\n      swap2\n      swap1\n      tag_20\n      jump\t// in\n    tag_19:\n      mload(0x40)\n      dup1\n      swap2\n      sub\n      swap1\n      return\n        /* \"contracts/Election.sol\":1614:1963  function getCandidateByNumber(uint16 voteNumber) public view returns (Candidate memory, bool) {... */\n    tag_5:\n      tag_21\n      0x04\n      dup1\n      calldatasize\n      sub\n      dup2\n      add\n      swap1\n      tag_22\n      swap2\n      swap1\n      tag_23\n      jump\t// in\n    tag_22:\n      tag_24\n      jump\t// in\n    tag_21:\n      mload(0x40)\n      tag_25\n      swap3\n      swap2\n      swap1\n      tag_26\n      jump\t// in\n    tag_25:\n      mload(0x40)\n      dup1\n      swap2\n      sub\n      swap1\n      return\n        /* \"contracts/Election.sol\":608:683  function setRole(string memory _role) public  {... */\n    tag_6:\n      tag_27\n      0x04\n      dup1\n      calldatasize\n      sub\n      dup2\n      add\n      swap1\n      tag_28\n      swap2\n      swap1\n      tag_29\n      jump\t// in\n    tag_28:\n      tag_30\n      jump\t// in\n    tag_27:\n      stop\n        /* \"contracts/Election.sol\":843:1028  function setCandidate(Candidate memory candidate) public {... */\n    tag_7:\n      tag_31\n      0x04\n      dup1\n      calldatasize\n      sub\n      dup2\n      add\n      swap1\n      tag_32\n      swap2\n      swap1\n      tag_33\n      jump\t// in\n    tag_32:\n      tag_34\n      jump\t// in\n    tag_31:\n      stop\n        /* \"contracts/Election.sol\":1334:1608  function vote(uint16 voteNumber) public view returns(VoteFeedBack memory){... */\n    tag_8:\n      tag_35\n      0x04\n      dup1\n      calldatasize\n      sub\n      dup2\n      add\n      swap1\n      tag_36\n      swap2\n      swap1\n      tag_23\n      jump\t// in\n    tag_36:\n      tag_37\n      jump\t// in\n    tag_35:\n      mload(0x40)\n      tag_38\n      swap2\n      swap1\n      tag_39\n      jump\t// in\n    tag_38:\n      mload(0x40)\n      dup1\n      swap2\n      sub\n      swap1\n      return\n        /* \"contracts/Election.sol\":689:772  function getRole() public view returns (string memory) {... */\n    tag_9:\n      tag_40\n      tag_41\n      jump\t// in\n    tag_40:\n      mload(0x40)\n      tag_42\n      swap2\n      swap1\n      tag_14\n      jump\t// in\n    tag_42:\n      mload(0x40)\n      dup1\n      swap2\n      sub\n      swap1\n      return\n        /* \"contracts/Election.sol\":239:257  string public role */\n    tag_12:\n      0x00\n      dup1\n      sload\n      tag_43\n      swap1\n      tag_44\n      jump\t// in\n    tag_43:\n      dup1\n      0x1f\n      add\n      0x20\n      dup1\n      swap2\n      div\n      mul\n      0x20\n      add\n      mload(0x40)\n      swap1\n      dup2\n      add\n      0x40\n      mstore\n      dup1\n      swap3\n      swap2\n      swap1\n      dup2\n      dup2\n      mstore\n      0x20\n      add\n      dup3\n      dup1\n      sload\n      tag_45\n      swap1\n      tag_44\n      jump\t// in\n    tag_45:\n      dup1\n      iszero\n      tag_46\n      jumpi\n      dup1\n      0x1f\n      lt\n      tag_47\n      jumpi\n      0x0100\n      dup1\n      dup4\n      sload\n      div\n      mul\n      dup4\n      mstore\n      swap2\n      0x20\n      add\n      swap2\n      jump(tag_46)\n    tag_47:\n      dup3\n      add\n      swap2\n      swap1\n      0x00\n      mstore\n      keccak256(0x00, 0x20)\n      swap1\n    tag_48:\n      dup2\n      sload\n      dup2\n      mstore\n      swap1\n      0x01\n      add\n      swap1\n      0x20\n      add\n      dup1\n      dup4\n      gt\n      tag_48\n      jumpi\n      dup3\n      swap1\n      sub\n      0x1f\n      and\n      dup3\n      add\n      swap2\n    tag_46:\n      pop\n      pop\n      pop\n      pop\n      pop\n      dup2\n      jump\t// out\n        /* \"contracts/Election.sol\":263:292  Candidate[] public candidates */\n    tag_18:\n      0x01\n      dup2\n      dup2\n      sload\n      dup2\n      lt\n      tag_49\n      jumpi\n      0x00\n      dup1\n      revert\n    tag_49:\n      swap1\n      0x00\n      mstore\n      keccak256(0x00, 0x20)\n      swap1\n      0x04\n      mul\n      add\n      0x00\n      swap2\n      pop\n      swap1\n      pop\n      dup1\n      0x00\n      add\n      0x00\n      swap1\n      sload\n      swap1\n      0x0100\n      exp\n      swap1\n      div\n      0xffffffffffffffffffffffffffffffffffffffff\n      and\n      swap1\n      dup1\n      0x01\n      add\n      dup1\n      sload\n      tag_51\n      swap1\n      tag_44\n      jump\t// in\n    tag_51:\n      dup1\n      0x1f\n      add\n      0x20\n      dup1\n      swap2\n      div\n      mul\n      0x20\n      add\n      mload(0x40)\n      swap1\n      dup2\n      add\n      0x40\n      mstore\n      dup1\n      swap3\n      swap2\n      swap1\n      dup2\n      dup2\n      mstore\n      0x20\n      add\n      dup3\n      dup1\n      sload\n      tag_52\n      swap1\n      tag_44\n      jump\t// in\n    tag_52:\n      dup1\n      iszero\n      tag_53\n      jumpi\n      dup1\n      0x1f\n      lt\n      tag_54\n      jumpi\n      0x0100\n      dup1\n      dup4\n      sload\n      div\n      mul\n      dup4\n      mstore\n      swap2\n      0x20\n      add\n      swap2\n      jump(tag_53)\n    tag_54:\n      dup3\n      add\n      swap2\n      swap1\n      0x00\n      mstore\n      keccak256(0x00, 0x20)\n      swap1\n    tag_55:\n      dup2\n      sload\n      dup2\n      mstore\n      swap1\n      0x01\n      add\n      swap1\n      0x20\n      add\n      dup1\n      dup4\n      gt\n      tag_55\n      jumpi\n      dup3\n      swap1\n      sub\n      0x1f\n      and\n      dup3\n      add\n      swap2\n    tag_53:\n      pop\n      pop\n      pop\n      pop\n      pop\n      swap1\n      dup1\n      0x02\n      add\n      0x00\n      swap1\n      sload\n      swap1\n      0x0100\n      exp\n      swap1\n      div\n      0xffff\n      and\n      swap1\n      dup1\n      0x03\n      add\n      dup1\n      sload\n      tag_56\n      swap1\n      tag_44\n      jump\t// in\n    tag_56:\n      dup1\n      0x1f\n      add\n      0x20\n      dup1\n      swap2\n      div\n      mul\n      0x20\n      add\n      mload(0x40)\n      swap1\n      dup2\n      add\n      0x40\n      mstore\n      dup1\n      swap3\n      swap2\n      swap1\n      dup2\n      dup2\n      mstore\n      0x20\n      add\n      dup3\n      dup1\n      sload\n      tag_57\n      swap1\n      tag_44\n      jump\t// in\n    tag_57:\n      dup1\n      iszero\n      tag_58\n      jumpi\n      dup1\n      0x1f\n      lt\n      tag_59\n      jumpi\n      0x0100\n      dup1\n      dup4\n      sload\n      div\n      mul\n      dup4\n      mstore\n      swap2\n      0x20\n      add\n      swap2\n      jump(tag_58)\n    tag_59:\n      dup3\n      add\n      swap2\n      swap1\n      0x00\n      mstore\n      keccak256(0x00, 0x20)\n      swap1\n    tag_60:\n      dup2\n      sload\n      dup2\n      mstore\n      swap1\n      0x01\n      add\n      swap1\n      0x20\n      add\n      dup1\n      dup4\n      gt\n      tag_60\n      jumpi\n      dup3\n      swap1\n      sub\n      0x1f\n      and\n      dup3\n      add\n      swap2\n    tag_58:\n      pop\n      pop\n      pop\n      pop\n      pop\n      swap1\n      pop\n      dup5\n      jump\t// out\n        /* \"contracts/Election.sol\":1614:1963  function getCandidateByNumber(uint16 voteNumber) public view returns (Candidate memory, bool) {... */\n    tag_24:\n        /* \"contracts/Election.sol\":1684:1700  Candidate memory */\n      tag_61\n      tag_62\n      jump\t// in\n    tag_61:\n        /* \"contracts/Election.sol\":1702:1706  bool */\n      0x00\n        /* \"contracts/Election.sol\":1723:1729  uint i */\n      dup1\n        /* \"contracts/Election.sol\":1732:1733  0 */\n      0x00\n        /* \"contracts/Election.sol\":1723:1733  uint i = 0 */\n      swap1\n      pop\n        /* \"contracts/Election.sol\":1718:1901  for (uint i = 0; i < candidates.length; i++) ... */\n    tag_64:\n        /* \"contracts/Election.sol\":1739:1749  candidates */\n      0x01\n        /* \"contracts/Election.sol\":1739:1756  candidates.length */\n      dup1\n      sload\n      swap1\n      pop\n        /* \"contracts/Election.sol\":1735:1736  i */\n      dup2\n        /* \"contracts/Election.sol\":1735:1756  i < candidates.length */\n      lt\n        /* \"contracts/Election.sol\":1718:1901  for (uint i = 0; i < candidates.length; i++) ... */\n      iszero\n      tag_65\n      jumpi\n        /* \"contracts/Election.sol\":1818:1828  voteNumber */\n      dup4\n        /* \"contracts/Election.sol\":1790:1828  candidates[i].voteNumber == voteNumber */\n      0xffff\n      and\n        /* \"contracts/Election.sol\":1790:1800  candidates */\n      0x01\n        /* \"contracts/Election.sol\":1801:1802  i */\n      dup3\n        /* \"contracts/Election.sol\":1790:1803  candidates[i] */\n      dup2\n      sload\n      dup2\n      lt\n      tag_67\n      jumpi\n      mstore(0x00, 0x4e487b7100000000000000000000000000000000000000000000000000000000)\n      mstore(0x04, 0x32)\n      revert(0x00, 0x24)\n    tag_67:\n      swap1\n      0x00\n      mstore\n      keccak256(0x00, 0x20)\n      swap1\n      0x04\n      mul\n      add\n        /* \"contracts/Election.sol\":1790:1814  candidates[i].voteNumber */\n      0x02\n      add\n      0x00\n      swap1\n      sload\n      swap1\n      0x0100\n      exp\n      swap1\n      div\n      0xffff\n      and\n        /* \"contracts/Election.sol\":1790:1828  candidates[i].voteNumber == voteNumber */\n      0xffff\n      and\n      eq\n        /* \"contracts/Election.sol\":1786:1891  if (candidates[i].voteNumber == voteNumber) {... */\n      iszero\n      tag_69\n      jumpi\n        /* \"contracts/Election.sol\":1856:1866  candidates */\n      0x01\n        /* \"contracts/Election.sol\":1867:1868  i */\n      dup2\n        /* \"contracts/Election.sol\":1856:1869  candidates[i] */\n      dup2\n      sload\n      dup2\n      lt\n      tag_70\n      jumpi\n      mstore(0x00, 0x4e487b7100000000000000000000000000000000000000000000000000000000)\n      mstore(0x04, 0x32)\n      revert(0x00, 0x24)\n    tag_70:\n      swap1\n      0x00\n      mstore\n      keccak256(0x00, 0x20)\n      swap1\n      0x04\n      mul\n      add\n        /* \"contracts/Election.sol\":1871:1875  true */\n      0x01\n        /* \"contracts/Election.sol\":1848:1876  return (candidates[i], true) */\n      dup2\n      mload(0x40)\n      dup1\n      0x80\n      add\n      0x40\n      mstore\n      swap1\n      dup2\n      0x00\n      dup3\n      add\n      0x00\n      swap1\n      sload\n      swap1\n      0x0100\n      exp\n      swap1\n      div\n      0xffffffffffffffffffffffffffffffffffffffff\n      and\n      0xffffffffffffffffffffffffffffffffffffffff\n      and\n      0xffffffffffffffffffffffffffffffffffffffff\n      and\n      dup2\n      mstore\n      0x20\n      add\n      0x01\n      dup3\n      add\n      dup1\n      sload\n      tag_72\n      swap1\n      tag_44\n      jump\t// in\n    tag_72:\n      dup1\n      0x1f\n      add\n      0x20\n      dup1\n      swap2\n      div\n      mul\n      0x20\n      add\n      mload(0x40)\n      swap1\n      dup2\n      add\n      0x40\n      mstore\n      dup1\n      swap3\n      swap2\n      swap1\n      dup2\n      dup2\n      mstore\n      0x20\n      add\n      dup3\n      dup1\n      sload\n      tag_73\n      swap1\n      tag_44\n      jump\t// in\n    tag_73:\n      dup1\n      iszero\n      tag_74\n      jumpi\n      dup1\n      0x1f\n      lt\n      tag_75\n      jumpi\n      0x0100\n      dup1\n      dup4\n      sload\n      div\n      mul\n      dup4\n      mstore\n      swap2\n      0x20\n      add\n      swap2\n      jump(tag_74)\n    tag_75:\n      dup3\n      add\n      swap2\n      swap1\n      0x00\n      mstore\n      keccak256(0x00, 0x20)\n      swap1\n    tag_76:\n      dup2\n      sload\n      dup2\n      mstore\n      swap1\n      0x01\n      add\n      swap1\n      0x20\n      add\n      dup1\n      dup4\n      gt\n      tag_76\n      jumpi\n      dup3\n      swap1\n      sub\n      0x1f\n      and\n      dup3\n      add\n      swap2\n    tag_74:\n      pop\n      pop\n      pop\n      pop\n      pop\n      dup2\n      mstore\n      0x20\n      add\n      0x02\n      dup3\n      add\n      0x00\n      swap1\n      sload\n      swap1\n      0x0100\n      exp\n      swap1\n      div\n      0xffff\n      and\n      0xffff\n      and\n      0xffff\n      and\n      dup2\n      mstore\n      0x20\n      add\n      0x03\n      dup3\n      add\n      dup1\n      sload\n      tag_77\n      swap1\n      tag_44\n      jump\t// in\n    tag_77:\n      dup1\n      0x1f\n      add\n      0x20\n      dup1\n      swap2\n      div\n      mul\n      0x20\n      add\n      mload(0x40)\n      swap1\n      dup2\n      add\n      0x40\n      mstore\n      dup1\n      swap3\n      swap2\n      swap1\n      dup2\n      dup2\n      mstore\n      0x20\n      add\n      dup3\n      dup1\n      sload\n      tag_78\n      swap1\n      tag_44\n      jump\t// in\n    tag_78:\n      dup1\n      iszero\n      tag_79\n      jumpi\n      dup1\n      0x1f\n      lt\n      tag_80\n      jumpi\n      0x0100\n      dup1\n      dup4\n      sload\n      div\n      mul\n      dup4\n      mstore\n      swap2\n      0x20\n      add\n      swap2\n      jump(tag_79)\n    tag_80:\n      dup3\n      add\n      swap2\n      swap1\n      0x00\n      mstore\n      keccak256(0x00, 0x20)\n      swap1\n    tag_81:\n      dup2\n      sload\n      dup2\n      mstore\n      swap1\n      0x01\n      add\n      swap1\n      0x20\n      add\n      dup1\n      dup4\n      gt\n      tag_81\n      jumpi\n      dup3\n      swap1\n      sub\n      0x1f\n      and\n      dup3\n      add\n      swap2\n    tag_79:\n      pop\n      pop\n      pop\n      pop\n      pop\n      dup2\n      mstore\n      pop\n      pop\n      swap2\n      pop\n      swap3\n      pop\n      swap3\n      pop\n      pop\n      jump(tag_63)\n        /* \"contracts/Election.sol\":1786:1891  if (candidates[i].voteNumber == voteNumber) {... */\n    tag_69:\n        /* \"contracts/Election.sol\":1758:1761  i++ */\n      dup1\n      dup1\n      tag_82\n      swap1\n      tag_83\n      jump\t// in\n    tag_82:\n      swap2\n      pop\n      pop\n        /* \"contracts/Election.sol\":1718:1901  for (uint i = 0; i < candidates.length; i++) ... */\n      jump(tag_64)\n    tag_65:\n      pop\n        /* \"contracts/Election.sol\":1918:1948  Candidate(address(0), \"\",0,\"\") */\n      mload(0x40)\n      dup1\n      0x80\n      add\n      0x40\n      mstore\n      dup1\n        /* \"contracts/Election.sol\":1936:1937  0 */\n      0x00\n        /* \"contracts/Election.sol\":1918:1948  Candidate(address(0), \"\",0,\"\") */\n      0xffffffffffffffffffffffffffffffffffffffff\n      and\n      dup2\n      mstore\n      0x20\n      add\n      mload(0x40)\n      dup1\n      0x20\n      add\n      0x40\n      mstore\n      dup1\n      0x00\n      dup2\n      mstore\n      pop\n      dup2\n      mstore\n      0x20\n      add\n        /* \"contracts/Election.sol\":1943:1944  0 */\n      0x00\n        /* \"contracts/Election.sol\":1918:1948  Candidate(address(0), \"\",0,\"\") */\n      0xffff\n      and\n      dup2\n      mstore\n      0x20\n      add\n      mload(0x40)\n      dup1\n      0x20\n      add\n      0x40\n      mstore\n      dup1\n      0x00\n      dup2\n      mstore\n      pop\n      dup2\n      mstore\n      pop\n        /* \"contracts/Election.sol\":1950:1955  false */\n      0x00\n        /* \"contracts/Election.sol\":1910:1956  return (Candidate(address(0), \"\",0,\"\"), false) */\n      swap2\n      pop\n      swap2\n      pop\n        /* \"contracts/Election.sol\":1614:1963  function getCandidateByNumber(uint16 voteNumber) public view returns (Candidate memory, bool) {... */\n    tag_63:\n      swap2\n      pop\n      swap2\n      jump\t// out\n        /* \"contracts/Election.sol\":608:683  function setRole(string memory _role) public  {... */\n    tag_30:\n        /* \"contracts/Election.sol\":671:676  _role */\n      dup1\n        /* \"contracts/Election.sol\":664:668  role */\n      0x00\n        /* \"contracts/Election.sol\":664:676  role = _role */\n      swap1\n      dup1\n      mload\n      swap1\n      0x20\n      add\n      swap1\n      tag_85\n      swap3\n      swap2\n      swap1\n      tag_86\n      jump\t// in\n    tag_85:\n      pop\n        /* \"contracts/Election.sol\":608:683  function setRole(string memory _role) public  {... */\n      pop\n      jump\t// out\n        /* \"contracts/Election.sol\":843:1028  function setCandidate(Candidate memory candidate) public {... */\n    tag_34:\n        /* \"contracts/Election.sol\":918:953  candidateRegisterIsValid(candidate) */\n      tag_88\n        /* \"contracts/Election.sol\":943:952  candidate */\n      dup2\n        /* \"contracts/Election.sol\":918:942  candidateRegisterIsValid */\n      tag_89\n        /* \"contracts/Election.sol\":918:953  candidateRegisterIsValid(candidate) */\n      jump\t// in\n    tag_88:\n        /* \"contracts/Election.sol\":910:984  require(candidateRegisterIsValid(candidate), \"Candidate input is invalid\") */\n      tag_90\n      jumpi\n      mload(0x40)\n      0x08c379a000000000000000000000000000000000000000000000000000000000\n      dup2\n      mstore\n      0x04\n      add\n      tag_91\n      swap1\n      tag_92\n      jump\t// in\n    tag_91:\n      mload(0x40)\n      dup1\n      swap2\n      sub\n      swap1\n      revert\n    tag_90:\n        /* \"contracts/Election.sol\":994:1004  candidates */\n      0x01\n        /* \"contracts/Election.sol\":1010:1019  candidate */\n      dup2\n        /* \"contracts/Election.sol\":994:1020  candidates.push(candidate) */\n      swap1\n      dup1\n      0x01\n      dup2\n      sload\n      add\n      dup1\n      dup3\n      sstore\n      dup1\n      swap2\n      pop\n      pop\n      0x01\n      swap1\n      sub\n      swap1\n      0x00\n      mstore\n      keccak256(0x00, 0x20)\n      swap1\n      0x04\n      mul\n      add\n      0x00\n      swap1\n      swap2\n      swap1\n      swap2\n      swap1\n      swap2\n      pop\n      0x00\n      dup3\n      add\n      mload\n      dup2\n      0x00\n      add\n      exp(0x0100, 0x00)\n      dup2\n      sload\n      dup2\n      0xffffffffffffffffffffffffffffffffffffffff\n      mul\n      not\n      and\n      swap1\n      dup4\n      0xffffffffffffffffffffffffffffffffffffffff\n      and\n      mul\n      or\n      swap1\n      sstore\n      pop\n      0x20\n      dup3\n      add\n      mload\n      dup2\n      0x01\n      add\n      swap1\n      dup1\n      mload\n      swap1\n      0x20\n      add\n      swap1\n      tag_94\n      swap3\n      swap2\n      swap1\n      tag_86\n      jump\t// in\n    tag_94:\n      pop\n      0x40\n      dup3\n      add\n      mload\n      dup2\n      0x02\n      add\n      exp(0x0100, 0x00)\n      dup2\n      sload\n      dup2\n      0xffff\n      mul\n      not\n      and\n      swap1\n      dup4\n      0xffff\n      and\n      mul\n      or\n      swap1\n      sstore\n      pop\n      0x60\n      dup3\n      add\n      mload\n      dup2\n      0x03\n      add\n      swap1\n      dup1\n      mload\n      swap1\n      0x20\n      add\n      swap1\n      tag_95\n      swap3\n      swap2\n      swap1\n      tag_86\n      jump\t// in\n    tag_95:\n      pop\n      pop\n      pop\n        /* \"contracts/Election.sol\":843:1028  function setCandidate(Candidate memory candidate) public {... */\n      pop\n      jump\t// out\n        /* \"contracts/Election.sol\":1334:1608  function vote(uint16 voteNumber) public view returns(VoteFeedBack memory){... */\n    tag_37:\n        /* \"contracts/Election.sol\":1387:1406  VoteFeedBack memory */\n      tag_96\n      tag_97\n      jump\t// in\n    tag_96:\n        /* \"contracts/Election.sol\":1420:1430  bool found */\n      0x00\n        /* \"contracts/Election.sol\":1434:1466  getCandidateByNumber(voteNumber) */\n      tag_99\n        /* \"contracts/Election.sol\":1455:1465  voteNumber */\n      dup4\n        /* \"contracts/Election.sol\":1434:1454  getCandidateByNumber */\n      tag_24\n        /* \"contracts/Election.sol\":1434:1466  getCandidateByNumber(voteNumber) */\n      jump\t// in\n    tag_99:\n        /* \"contracts/Election.sol\":1417:1466  (, bool found) = getCandidateByNumber(voteNumber) */\n      swap2\n      pop\n      pop\n        /* \"contracts/Election.sol\":1481:1486  found */\n      dup1\n        /* \"contracts/Election.sol\":1476:1563  if (!found) {... */\n      tag_100\n      jumpi\n        /* \"contracts/Election.sol\":1509:1552  VoteFeedBack(false, \"Candidate not found!\") */\n      mload(0x40)\n      dup1\n      0x40\n      add\n      0x40\n      mstore\n      dup1\n        /* \"contracts/Election.sol\":1522:1527  false */\n      0x00\n        /* \"contracts/Election.sol\":1509:1552  VoteFeedBack(false, \"Candidate not found!\") */\n      iszero\n      iszero\n      dup2\n      mstore\n      0x20\n      add\n      mload(0x40)\n      dup1\n      0x40\n      add\n      0x40\n      mstore\n      dup1\n      0x14\n      dup2\n      mstore\n      0x20\n      add\n      0x43616e646964617465206e6f7420666f756e6421000000000000000000000000\n      dup2\n      mstore\n      pop\n      dup2\n      mstore\n      pop\n        /* \"contracts/Election.sol\":1502:1552  return VoteFeedBack(false, \"Candidate not found!\") */\n      swap2\n      pop\n      pop\n      jump(tag_98)\n        /* \"contracts/Election.sol\":1476:1563  if (!found) {... */\n    tag_100:\n        /* \"contracts/Election.sol\":1579:1601  VoteFeedBack(true, \"\") */\n      mload(0x40)\n      dup1\n      0x40\n      add\n      0x40\n      mstore\n      dup1\n        /* \"contracts/Election.sol\":1592:1596  true */\n      0x01\n        /* \"contracts/Election.sol\":1579:1601  VoteFeedBack(true, \"\") */\n      iszero\n      iszero\n      dup2\n      mstore\n      0x20\n      add\n      mload(0x40)\n      dup1\n      0x20\n      add\n      0x40\n      mstore\n      dup1\n      0x00\n      dup2\n      mstore\n      pop\n      dup2\n      mstore\n      pop\n        /* \"contracts/Election.sol\":1572:1601  return VoteFeedBack(true, \"\") */\n      swap2\n      pop\n      pop\n        /* \"contracts/Election.sol\":1334:1608  function vote(uint16 voteNumber) public view returns(VoteFeedBack memory){... */\n    tag_98:\n      swap2\n      swap1\n      pop\n      jump\t// out\n        /* \"contracts/Election.sol\":689:772  function getRole() public view returns (string memory) {... */\n    tag_41:\n        /* \"contracts/Election.sol\":729:742  string memory */\n      0x60\n        /* \"contracts/Election.sol\":761:765  role */\n      0x00\n        /* \"contracts/Election.sol\":754:765  return role */\n      dup1\n      sload\n      tag_102\n      swap1\n      tag_44\n      jump\t// in\n    tag_102:\n      dup1\n      0x1f\n      add\n      0x20\n      dup1\n      swap2\n      div\n      mul\n      0x20\n      add\n      mload(0x40)\n      swap1\n      dup2\n      add\n      0x40\n      mstore\n      dup1\n      swap3\n      swap2\n      swap1\n      dup2\n      dup2\n      mstore\n      0x20\n      add\n      dup3\n      dup1\n      sload\n      tag_103\n      swap1\n      tag_44\n      jump\t// in\n    tag_103:\n      dup1\n      iszero\n      tag_104\n      jumpi\n      dup1\n      0x1f\n      lt\n      tag_105\n      jumpi\n      0x0100\n      dup1\n      dup4\n      sload\n      div\n      mul\n      dup4\n      mstore\n      swap2\n      0x20\n      add\n      swap2\n      jump(tag_104)\n    tag_105:\n      dup3\n      add\n      swap2\n      swap1\n      0x00\n      mstore\n      keccak256(0x00, 0x20)\n      swap1\n    tag_106:\n      dup2\n      sload\n      dup2\n      mstore\n      swap1\n      0x01\n      add\n      swap1\n      0x20\n      add\n      dup1\n      dup4\n      gt\n      tag_106\n      jumpi\n      dup3\n      swap1\n      sub\n      0x1f\n      and\n      dup3\n      add\n      swap2\n    tag_104:\n      pop\n      pop\n      pop\n      pop\n      pop\n      swap1\n      pop\n        /* \"contracts/Election.sol\":689:772  function getRole() public view returns (string memory) {... */\n      swap1\n      jump\t// out\n        /* \"contracts/Election.sol\":1034:1327  function candidateRegisterIsValid(Candidate memory candidate) internal view returns(bool)  {... */\n    tag_89:\n        /* \"contracts/Election.sol\":1118:1122  bool */\n      0x00\n        /* \"contracts/Election.sol\":1140:1146  uint i */\n      dup1\n        /* \"contracts/Election.sol\":1149:1150  0 */\n      0x00\n        /* \"contracts/Election.sol\":1140:1150  uint i = 0 */\n      swap1\n      pop\n        /* \"contracts/Election.sol\":1135:1296  for (uint i = 0; i < candidates.length; i++) ... */\n    tag_108:\n        /* \"contracts/Election.sol\":1156:1166  candidates */\n      0x01\n        /* \"contracts/Election.sol\":1156:1173  candidates.length */\n      dup1\n      sload\n      swap1\n      pop\n        /* \"contracts/Election.sol\":1152:1153  i */\n      dup2\n        /* \"contracts/Election.sol\":1152:1173  i < candidates.length */\n      lt\n        /* \"contracts/Election.sol\":1135:1296  for (uint i = 0; i < candidates.length; i++) ... */\n      iszero\n      tag_109\n      jumpi\n        /* \"contracts/Election.sol\":1223:1233  candidates */\n      0x01\n        /* \"contracts/Election.sol\":1234:1235  i */\n      dup2\n        /* \"contracts/Election.sol\":1223:1236  candidates[i] */\n      dup2\n      sload\n      dup2\n      lt\n      tag_111\n      jumpi\n      mstore(0x00, 0x4e487b7100000000000000000000000000000000000000000000000000000000)\n      mstore(0x04, 0x32)\n      revert(0x00, 0x24)\n    tag_111:\n      swap1\n      0x00\n      mstore\n      keccak256(0x00, 0x20)\n      swap1\n      0x04\n      mul\n      add\n        /* \"contracts/Election.sol\":1223:1239  candidates[i].id */\n      0x00\n      add\n      0x00\n      swap1\n      sload\n      swap1\n      0x0100\n      exp\n      swap1\n      div\n      0xffffffffffffffffffffffffffffffffffffffff\n      and\n        /* \"contracts/Election.sol\":1207:1239  candidate.id == candidates[i].id */\n      0xffffffffffffffffffffffffffffffffffffffff\n      and\n        /* \"contracts/Election.sol\":1207:1216  candidate */\n      dup4\n        /* \"contracts/Election.sol\":1207:1219  candidate.id */\n      0x00\n      add\n      mload\n        /* \"contracts/Election.sol\":1207:1239  candidate.id == candidates[i].id */\n      0xffffffffffffffffffffffffffffffffffffffff\n      and\n      eq\n        /* \"contracts/Election.sol\":1203:1286  if (candidate.id == candidates[i].id) {... */\n      iszero\n      tag_113\n      jumpi\n        /* \"contracts/Election.sol\":1266:1271  false */\n      0x00\n        /* \"contracts/Election.sol\":1259:1271  return false */\n      swap2\n      pop\n      pop\n      jump(tag_107)\n        /* \"contracts/Election.sol\":1203:1286  if (candidate.id == candidates[i].id) {... */\n    tag_113:\n        /* \"contracts/Election.sol\":1175:1178  i++ */\n      dup1\n      dup1\n      tag_114\n      swap1\n      tag_83\n      jump\t// in\n    tag_114:\n      swap2\n      pop\n      pop\n        /* \"contracts/Election.sol\":1135:1296  for (uint i = 0; i < candidates.length; i++) ... */\n      jump(tag_108)\n    tag_109:\n      pop\n        /* \"contracts/Election.sol\":1316:1320  true */\n      0x01\n        /* \"contracts/Election.sol\":1309:1320  return true */\n      swap1\n      pop\n        /* \"contracts/Election.sol\":1034:1327  function candidateRegisterIsValid(Candidate memory candidate) internal view returns(bool)  {... */\n    tag_107:\n      swap2\n      swap1\n      pop\n      jump\t// out\n    tag_62:\n      mload(0x40)\n      dup1\n      0x80\n      add\n      0x40\n      mstore\n      dup1\n      and(0xffffffffffffffffffffffffffffffffffffffff, 0x00)\n      dup2\n      mstore\n      0x20\n      add\n      0x60\n      dup2\n      mstore\n      0x20\n      add\n      and(0xffff, 0x00)\n      dup2\n      mstore\n      0x20\n      add\n      0x60\n      dup2\n      mstore\n      pop\n      swap1\n      jump\t// out\n    tag_86:\n      dup3\n      dup1\n      sload\n      tag_115\n      swap1\n      tag_44\n      jump\t// in\n    tag_115:\n      swap1\n      0x00\n      mstore\n      keccak256(0x00, 0x20)\n      swap1\n      0x1f\n      add\n      0x20\n      swap1\n      div\n      dup2\n      add\n      swap3\n      dup3\n      tag_117\n      jumpi\n      0x00\n      dup6\n      sstore\n      jump(tag_116)\n    tag_117:\n      dup3\n      0x1f\n      lt\n      tag_118\n      jumpi\n      dup1\n      mload\n      not(0xff)\n      and\n      dup4\n      dup1\n      add\n      or\n      dup6\n      sstore\n      jump(tag_116)\n    tag_118:\n      dup3\n      dup1\n      add\n      0x01\n      add\n      dup6\n      sstore\n      dup3\n      iszero\n      tag_116\n      jumpi\n      swap2\n      dup3\n      add\n    tag_119:\n      dup3\n      dup2\n      gt\n      iszero\n      tag_120\n      jumpi\n      dup3\n      mload\n      dup3\n      sstore\n      swap2\n      0x20\n      add\n      swap2\n      swap1\n      0x01\n      add\n      swap1\n      jump(tag_119)\n    tag_120:\n    tag_116:\n      pop\n      swap1\n      pop\n      tag_121\n      swap2\n      swap1\n      tag_122\n      jump\t// in\n    tag_121:\n      pop\n      swap1\n      jump\t// out\n    tag_97:\n      mload(0x40)\n      dup1\n      0x40\n      add\n      0x40\n      mstore\n      dup1\n      iszero(iszero(0x00))\n      dup2\n      mstore\n      0x20\n      add\n      0x60\n      dup2\n      mstore\n      pop\n      swap1\n      jump\t// out\n    tag_122:\n    tag_123:\n      dup1\n      dup3\n      gt\n      iszero\n      tag_124\n      jumpi\n      0x00\n      dup2\n      0x00\n      swap1\n      sstore\n      pop\n      0x01\n      add\n      jump(tag_123)\n    tag_124:\n      pop\n      swap1\n      jump\t// out\n        /* \"#utility.yul\":7:351   */\n    tag_126:\n      0x00\n        /* \"#utility.yul\":110:175   */\n      tag_128\n        /* \"#utility.yul\":125:174   */\n      tag_129\n        /* \"#utility.yul\":167:173   */\n      dup5\n        /* \"#utility.yul\":125:174   */\n      tag_130\n      jump\t// in\n    tag_129:\n        /* \"#utility.yul\":110:175   */\n      tag_131\n      jump\t// in\n    tag_128:\n        /* \"#utility.yul\":101:175   */\n      swap1\n      pop\n        /* \"#utility.yul\":198:204   */\n      dup3\n        /* \"#utility.yul\":191:196   */\n      dup2\n        /* \"#utility.yul\":184:205   */\n      mstore\n        /* \"#utility.yul\":236:240   */\n      0x20\n        /* \"#utility.yul\":229:234   */\n      dup2\n        /* \"#utility.yul\":225:241   */\n      add\n        /* \"#utility.yul\":274:277   */\n      dup5\n        /* \"#utility.yul\":265:271   */\n      dup5\n        /* \"#utility.yul\":260:263   */\n      dup5\n        /* \"#utility.yul\":256:272   */\n      add\n        /* \"#utility.yul\":253:278   */\n      gt\n        /* \"#utility.yul\":250:252   */\n      iszero\n      tag_132\n      jumpi\n        /* \"#utility.yul\":291:292   */\n      0x00\n        /* \"#utility.yul\":288:289   */\n      dup1\n        /* \"#utility.yul\":281:293   */\n      revert\n        /* \"#utility.yul\":250:252   */\n    tag_132:\n        /* \"#utility.yul\":304:345   */\n      tag_133\n        /* \"#utility.yul\":338:344   */\n      dup5\n        /* \"#utility.yul\":333:336   */\n      dup3\n        /* \"#utility.yul\":328:331   */\n      dup6\n        /* \"#utility.yul\":304:345   */\n      tag_134\n      jump\t// in\n    tag_133:\n        /* \"#utility.yul\":91:351   */\n      pop\n      swap4\n      swap3\n      pop\n      pop\n      pop\n      jump\t// out\n        /* \"#utility.yul\":357:496   */\n    tag_135:\n      0x00\n        /* \"#utility.yul\":441:447   */\n      dup2\n        /* \"#utility.yul\":428:448   */\n      calldataload\n        /* \"#utility.yul\":419:448   */\n      swap1\n      pop\n        /* \"#utility.yul\":457:490   */\n      tag_137\n        /* \"#utility.yul\":484:489   */\n      dup2\n        /* \"#utility.yul\":457:490   */\n      tag_138\n      jump\t// in\n    tag_137:\n        /* \"#utility.yul\":409:496   */\n      swap3\n      swap2\n      pop\n      pop\n      jump\t// out\n        /* \"#utility.yul\":516:789   */\n    tag_139:\n      0x00\n        /* \"#utility.yul\":621:624   */\n      dup3\n        /* \"#utility.yul\":614:618   */\n      0x1f\n        /* \"#utility.yul\":606:612   */\n      dup4\n        /* \"#utility.yul\":602:619   */\n      add\n        /* \"#utility.yul\":598:625   */\n      slt\n        /* \"#utility.yul\":588:590   */\n      tag_141\n      jumpi\n        /* \"#utility.yul\":639:640   */\n      0x00\n        /* \"#utility.yul\":636:637   */\n      dup1\n        /* \"#utility.yul\":629:641   */\n      revert\n        /* \"#utility.yul\":588:590   */\n    tag_141:\n        /* \"#utility.yul\":679:685   */\n      dup2\n        /* \"#utility.yul\":666:686   */\n      calldataload\n        /* \"#utility.yul\":704:783   */\n      tag_142\n        /* \"#utility.yul\":779:782   */\n      dup5\n        /* \"#utility.yul\":771:777   */\n      dup3\n        /* \"#utility.yul\":764:768   */\n      0x20\n        /* \"#utility.yul\":756:762   */\n      dup7\n        /* \"#utility.yul\":752:769   */\n      add\n        /* \"#utility.yul\":704:783   */\n      tag_126\n      jump\t// in\n    tag_142:\n        /* \"#utility.yul\":695:783   */\n      swap2\n      pop\n        /* \"#utility.yul\":578:789   */\n      pop\n      swap3\n      swap2\n      pop\n      pop\n      jump\t// out\n        /* \"#utility.yul\":828:1866   */\n    tag_143:\n      0x00\n        /* \"#utility.yul\":946:950   */\n      0x80\n        /* \"#utility.yul\":934:943   */\n      dup3\n        /* \"#utility.yul\":929:932   */\n      dup5\n        /* \"#utility.yul\":925:944   */\n      sub\n        /* \"#utility.yul\":921:951   */\n      slt\n        /* \"#utility.yul\":918:920   */\n      iszero\n      tag_145\n      jumpi\n        /* \"#utility.yul\":964:965   */\n      0x00\n        /* \"#utility.yul\":961:962   */\n      dup1\n        /* \"#utility.yul\":954:966   */\n      revert\n        /* \"#utility.yul\":918:920   */\n    tag_145:\n        /* \"#utility.yul\":986:1006   */\n      tag_146\n        /* \"#utility.yul\":1001:1005   */\n      0x80\n        /* \"#utility.yul\":986:1006   */\n      tag_131\n      jump\t// in\n    tag_146:\n        /* \"#utility.yul\":977:1006   */\n      swap1\n      pop\n        /* \"#utility.yul\":1063:1064   */\n      0x00\n        /* \"#utility.yul\":1103:1152   */\n      tag_147\n        /* \"#utility.yul\":1148:1151   */\n      dup5\n        /* \"#utility.yul\":1139:1145   */\n      dup3\n        /* \"#utility.yul\":1128:1137   */\n      dup6\n        /* \"#utility.yul\":1124:1146   */\n      add\n        /* \"#utility.yul\":1103:1152   */\n      tag_135\n      jump\t// in\n    tag_147:\n        /* \"#utility.yul\":1096:1100   */\n      0x00\n        /* \"#utility.yul\":1089:1094   */\n      dup4\n        /* \"#utility.yul\":1085:1101   */\n      add\n        /* \"#utility.yul\":1078:1153   */\n      mstore\n        /* \"#utility.yul\":1016:1164   */\n      pop\n        /* \"#utility.yul\":1251:1253   */\n      0x20\n        /* \"#utility.yul\":1240:1249   */\n      dup3\n        /* \"#utility.yul\":1236:1254   */\n      add\n        /* \"#utility.yul\":1223:1255   */\n      calldataload\n        /* \"#utility.yul\":1282:1300   */\n      0xffffffffffffffff\n        /* \"#utility.yul\":1274:1280   */\n      dup2\n        /* \"#utility.yul\":1271:1301   */\n      gt\n        /* \"#utility.yul\":1268:1270   */\n      iszero\n      tag_148\n      jumpi\n        /* \"#utility.yul\":1314:1315   */\n      0x00\n        /* \"#utility.yul\":1311:1312   */\n      dup1\n        /* \"#utility.yul\":1304:1316   */\n      revert\n        /* \"#utility.yul\":1268:1270   */\n    tag_148:\n        /* \"#utility.yul\":1357:1416   */\n      tag_149\n        /* \"#utility.yul\":1412:1415   */\n      dup5\n        /* \"#utility.yul\":1403:1409   */\n      dup3\n        /* \"#utility.yul\":1392:1401   */\n      dup6\n        /* \"#utility.yul\":1388:1410   */\n      add\n        /* \"#utility.yul\":1357:1416   */\n      tag_139\n      jump\t// in\n    tag_149:\n        /* \"#utility.yul\":1350:1354   */\n      0x20\n        /* \"#utility.yul\":1343:1348   */\n      dup4\n        /* \"#utility.yul\":1339:1355   */\n      add\n        /* \"#utility.yul\":1332:1417   */\n      mstore\n        /* \"#utility.yul\":1174:1428   */\n      pop\n        /* \"#utility.yul\":1493:1495   */\n      0x40\n        /* \"#utility.yul\":1534:1582   */\n      tag_150\n        /* \"#utility.yul\":1578:1581   */\n      dup5\n        /* \"#utility.yul\":1569:1575   */\n      dup3\n        /* \"#utility.yul\":1558:1567   */\n      dup6\n        /* \"#utility.yul\":1554:1576   */\n      add\n        /* \"#utility.yul\":1534:1582   */\n      tag_151\n      jump\t// in\n    tag_150:\n        /* \"#utility.yul\":1527:1531   */\n      0x40\n        /* \"#utility.yul\":1520:1525   */\n      dup4\n        /* \"#utility.yul\":1516:1532   */\n      add\n        /* \"#utility.yul\":1509:1583   */\n      mstore\n        /* \"#utility.yul\":1438:1594   */\n      pop\n        /* \"#utility.yul\":1682:1684   */\n      0x60\n        /* \"#utility.yul\":1671:1680   */\n      dup3\n        /* \"#utility.yul\":1667:1685   */\n      add\n        /* \"#utility.yul\":1654:1686   */\n      calldataload\n        /* \"#utility.yul\":1713:1731   */\n      0xffffffffffffffff\n        /* \"#utility.yul\":1705:1711   */\n      dup2\n        /* \"#utility.yul\":1702:1732   */\n      gt\n        /* \"#utility.yul\":1699:1701   */\n      iszero\n      tag_152\n      jumpi\n        /* \"#utility.yul\":1745:1746   */\n      0x00\n        /* \"#utility.yul\":1742:1743   */\n      dup1\n        /* \"#utility.yul\":1735:1747   */\n      revert\n        /* \"#utility.yul\":1699:1701   */\n    tag_152:\n        /* \"#utility.yul\":1788:1847   */\n      tag_153\n        /* \"#utility.yul\":1843:1846   */\n      dup5\n        /* \"#utility.yul\":1834:1840   */\n      dup3\n        /* \"#utility.yul\":1823:1832   */\n      dup6\n        /* \"#utility.yul\":1819:1841   */\n      add\n        /* \"#utility.yul\":1788:1847   */\n      tag_139\n      jump\t// in\n    tag_153:\n        /* \"#utility.yul\":1781:1785   */\n      0x60\n        /* \"#utility.yul\":1774:1779   */\n      dup4\n        /* \"#utility.yul\":1770:1786   */\n      add\n        /* \"#utility.yul\":1763:1848   */\n      mstore\n        /* \"#utility.yul\":1604:1859   */\n      pop\n        /* \"#utility.yul\":908:1866   */\n      swap3\n      swap2\n      pop\n      pop\n      jump\t// out\n        /* \"#utility.yul\":1872:2009   */\n    tag_151:\n      0x00\n        /* \"#utility.yul\":1955:1961   */\n      dup2\n        /* \"#utility.yul\":1942:1962   */\n      calldataload\n        /* \"#utility.yul\":1933:1962   */\n      swap1\n      pop\n        /* \"#utility.yul\":1971:2003   */\n      tag_155\n        /* \"#utility.yul\":1997:2002   */\n      dup2\n        /* \"#utility.yul\":1971:2003   */\n      tag_156\n      jump\t// in\n    tag_155:\n        /* \"#utility.yul\":1923:2009   */\n      swap3\n      swap2\n      pop\n      pop\n      jump\t// out\n        /* \"#utility.yul\":2015:2154   */\n    tag_157:\n      0x00\n        /* \"#utility.yul\":2099:2105   */\n      dup2\n        /* \"#utility.yul\":2086:2106   */\n      calldataload\n        /* \"#utility.yul\":2077:2106   */\n      swap1\n      pop\n        /* \"#utility.yul\":2115:2148   */\n      tag_159\n        /* \"#utility.yul\":2142:2147   */\n      dup2\n        /* \"#utility.yul\":2115:2148   */\n      tag_160\n      jump\t// in\n    tag_159:\n        /* \"#utility.yul\":2067:2154   */\n      swap3\n      swap2\n      pop\n      pop\n      jump\t// out\n        /* \"#utility.yul\":2160:2535   */\n    tag_29:\n      0x00\n        /* \"#utility.yul\":2278:2280   */\n      0x20\n        /* \"#utility.yul\":2266:2275   */\n      dup3\n        /* \"#utility.yul\":2257:2264   */\n      dup5\n        /* \"#utility.yul\":2253:2276   */\n      sub\n        /* \"#utility.yul\":2249:2281   */\n      slt\n        /* \"#utility.yul\":2246:2248   */\n      iszero\n      tag_162\n      jumpi\n        /* \"#utility.yul\":2294:2295   */\n      0x00\n        /* \"#utility.yul\":2291:2292   */\n      dup1\n        /* \"#utility.yul\":2284:2296   */\n      revert\n        /* \"#utility.yul\":2246:2248   */\n    tag_162:\n        /* \"#utility.yul\":2365:2366   */\n      0x00\n        /* \"#utility.yul\":2354:2363   */\n      dup3\n        /* \"#utility.yul\":2350:2367   */\n      add\n        /* \"#utility.yul\":2337:2368   */\n      calldataload\n        /* \"#utility.yul\":2395:2413   */\n      0xffffffffffffffff\n        /* \"#utility.yul\":2387:2393   */\n      dup2\n        /* \"#utility.yul\":2384:2414   */\n      gt\n        /* \"#utility.yul\":2381:2383   */\n      iszero\n      tag_163\n      jumpi\n        /* \"#utility.yul\":2427:2428   */\n      0x00\n        /* \"#utility.yul\":2424:2425   */\n      dup1\n        /* \"#utility.yul\":2417:2429   */\n      revert\n        /* \"#utility.yul\":2381:2383   */\n    tag_163:\n        /* \"#utility.yul\":2455:2518   */\n      tag_164\n        /* \"#utility.yul\":2510:2517   */\n      dup5\n        /* \"#utility.yul\":2501:2507   */\n      dup3\n        /* \"#utility.yul\":2490:2499   */\n      dup6\n        /* \"#utility.yul\":2486:2508   */\n      add\n        /* \"#utility.yul\":2455:2518   */\n      tag_139\n      jump\t// in\n    tag_164:\n        /* \"#utility.yul\":2445:2518   */\n      swap2\n      pop\n        /* \"#utility.yul\":2308:2528   */\n      pop\n        /* \"#utility.yul\":2236:2535   */\n      swap3\n      swap2\n      pop\n      pop\n      jump\t// out\n        /* \"#utility.yul\":2541:2946   */\n    tag_33:\n      0x00\n        /* \"#utility.yul\":2674:2676   */\n      0x20\n        /* \"#utility.yul\":2662:2671   */\n      dup3\n        /* \"#utility.yul\":2653:2660   */\n      dup5\n        /* \"#utility.yul\":2649:2672   */\n      sub\n        /* \"#utility.yul\":2645:2677   */\n      slt\n        /* \"#utility.yul\":2642:2644   */\n      iszero\n      tag_166\n      jumpi\n        /* \"#utility.yul\":2690:2691   */\n      0x00\n        /* \"#utility.yul\":2687:2688   */\n      dup1\n        /* \"#utility.yul\":2680:2692   */\n      revert\n        /* \"#utility.yul\":2642:2644   */\n    tag_166:\n        /* \"#utility.yul\":2761:2762   */\n      0x00\n        /* \"#utility.yul\":2750:2759   */\n      dup3\n        /* \"#utility.yul\":2746:2763   */\n      add\n        /* \"#utility.yul\":2733:2764   */\n      calldataload\n        /* \"#utility.yul\":2791:2809   */\n      0xffffffffffffffff\n        /* \"#utility.yul\":2783:2789   */\n      dup2\n        /* \"#utility.yul\":2780:2810   */\n      gt\n        /* \"#utility.yul\":2777:2779   */\n      iszero\n      tag_167\n      jumpi\n        /* \"#utility.yul\":2823:2824   */\n      0x00\n        /* \"#utility.yul\":2820:2821   */\n      dup1\n        /* \"#utility.yul\":2813:2825   */\n      revert\n        /* \"#utility.yul\":2777:2779   */\n    tag_167:\n        /* \"#utility.yul\":2851:2929   */\n      tag_168\n        /* \"#utility.yul\":2921:2928   */\n      dup5\n        /* \"#utility.yul\":2912:2918   */\n      dup3\n        /* \"#utility.yul\":2901:2910   */\n      dup6\n        /* \"#utility.yul\":2897:2919   */\n      add\n        /* \"#utility.yul\":2851:2929   */\n      tag_143\n      jump\t// in\n    tag_168:\n        /* \"#utility.yul\":2841:2929   */\n      swap2\n      pop\n        /* \"#utility.yul\":2704:2939   */\n      pop\n        /* \"#utility.yul\":2632:2946   */\n      swap3\n      swap2\n      pop\n      pop\n      jump\t// out\n        /* \"#utility.yul\":2952:3212   */\n    tag_23:\n      0x00\n        /* \"#utility.yul\":3059:3061   */\n      0x20\n        /* \"#utility.yul\":3047:3056   */\n      dup3\n        /* \"#utility.yul\":3038:3045   */\n      dup5\n        /* \"#utility.yul\":3034:3057   */\n      sub\n        /* \"#utility.yul\":3030:3062   */\n      slt\n        /* \"#utility.yul\":3027:3029   */\n      iszero\n      tag_170\n      jumpi\n        /* \"#utility.yul\":3075:3076   */\n      0x00\n        /* \"#utility.yul\":3072:3073   */\n      dup1\n        /* \"#utility.yul\":3065:3077   */\n      revert\n        /* \"#utility.yul\":3027:3029   */\n    tag_170:\n        /* \"#utility.yul\":3118:3119   */\n      0x00\n        /* \"#utility.yul\":3143:3195   */\n      tag_171\n        /* \"#utility.yul\":3187:3194   */\n      dup5\n        /* \"#utility.yul\":3178:3184   */\n      dup3\n        /* \"#utility.yul\":3167:3176   */\n      dup6\n        /* \"#utility.yul\":3163:3185   */\n      add\n        /* \"#utility.yul\":3143:3195   */\n      tag_151\n      jump\t// in\n    tag_171:\n        /* \"#utility.yul\":3133:3195   */\n      swap2\n      pop\n        /* \"#utility.yul\":3089:3205   */\n      pop\n        /* \"#utility.yul\":3017:3212   */\n      swap3\n      swap2\n      pop\n      pop\n      jump\t// out\n        /* \"#utility.yul\":3218:3480   */\n    tag_17:\n      0x00\n        /* \"#utility.yul\":3326:3328   */\n      0x20\n        /* \"#utility.yul\":3314:3323   */\n      dup3\n        /* \"#utility.yul\":3305:3312   */\n      dup5\n        /* \"#utility.yul\":3301:3324   */\n      sub\n        /* \"#utility.yul\":3297:3329   */\n      slt\n        /* \"#utility.yul\":3294:3296   */\n      iszero\n      tag_173\n      jumpi\n        /* \"#utility.yul\":3342:3343   */\n      0x00\n        /* \"#utility.yul\":3339:3340   */\n      dup1\n        /* \"#utility.yul\":3332:3344   */\n      revert\n        /* \"#utility.yul\":3294:3296   */\n    tag_173:\n        /* \"#utility.yul\":3385:3386   */\n      0x00\n        /* \"#utility.yul\":3410:3463   */\n      tag_174\n        /* \"#utility.yul\":3455:3462   */\n      dup5\n        /* \"#utility.yul\":3446:3452   */\n      dup3\n        /* \"#utility.yul\":3435:3444   */\n      dup6\n        /* \"#utility.yul\":3431:3453   */\n      add\n        /* \"#utility.yul\":3410:3463   */\n      tag_157\n      jump\t// in\n    tag_174:\n        /* \"#utility.yul\":3400:3463   */\n      swap2\n      pop\n        /* \"#utility.yul\":3356:3473   */\n      pop\n        /* \"#utility.yul\":3284:3480   */\n      swap3\n      swap2\n      pop\n      pop\n      jump\t// out\n        /* \"#utility.yul\":3486:3594   */\n    tag_175:\n        /* \"#utility.yul\":3563:3587   */\n      tag_177\n        /* \"#utility.yul\":3581:3586   */\n      dup2\n        /* \"#utility.yul\":3563:3587   */\n      tag_178\n      jump\t// in\n    tag_177:\n        /* \"#utility.yul\":3558:3561   */\n      dup3\n        /* \"#utility.yul\":3551:3588   */\n      mstore\n        /* \"#utility.yul\":3541:3594   */\n      pop\n      pop\n      jump\t// out\n        /* \"#utility.yul\":3600:3718   */\n    tag_179:\n        /* \"#utility.yul\":3687:3711   */\n      tag_181\n        /* \"#utility.yul\":3705:3710   */\n      dup2\n        /* \"#utility.yul\":3687:3711   */\n      tag_178\n      jump\t// in\n    tag_181:\n        /* \"#utility.yul\":3682:3685   */\n      dup3\n        /* \"#utility.yul\":3675:3712   */\n      mstore\n        /* \"#utility.yul\":3665:3718   */\n      pop\n      pop\n      jump\t// out\n        /* \"#utility.yul\":3724:3823   */\n    tag_182:\n        /* \"#utility.yul\":3795:3816   */\n      tag_184\n        /* \"#utility.yul\":3810:3815   */\n      dup2\n        /* \"#utility.yul\":3795:3816   */\n      tag_185\n      jump\t// in\n    tag_184:\n        /* \"#utility.yul\":3790:3793   */\n      dup3\n        /* \"#utility.yul\":3783:3817   */\n      mstore\n        /* \"#utility.yul\":3773:3823   */\n      pop\n      pop\n      jump\t// out\n        /* \"#utility.yul\":3829:3938   */\n    tag_186:\n        /* \"#utility.yul\":3910:3931   */\n      tag_188\n        /* \"#utility.yul\":3925:3930   */\n      dup2\n        /* \"#utility.yul\":3910:3931   */\n      tag_185\n      jump\t// in\n    tag_188:\n        /* \"#utility.yul\":3905:3908   */\n      dup3\n        /* \"#utility.yul\":3898:3932   */\n      mstore\n        /* \"#utility.yul\":3888:3938   */\n      pop\n      pop\n      jump\t// out\n        /* \"#utility.yul\":3944:4288   */\n    tag_189:\n      0x00\n        /* \"#utility.yul\":4050:4089   */\n      tag_191\n        /* \"#utility.yul\":4083:4088   */\n      dup3\n        /* \"#utility.yul\":4050:4089   */\n      tag_192\n      jump\t// in\n    tag_191:\n        /* \"#utility.yul\":4105:4166   */\n      tag_193\n        /* \"#utility.yul\":4159:4165   */\n      dup2\n        /* \"#utility.yul\":4154:4157   */\n      dup6\n        /* \"#utility.yul\":4105:4166   */\n      tag_194\n      jump\t// in\n    tag_193:\n        /* \"#utility.yul\":4098:4166   */\n      swap4\n      pop\n        /* \"#utility.yul\":4175:4227   */\n      tag_195\n        /* \"#utility.yul\":4220:4226   */\n      dup2\n        /* \"#utility.yul\":4215:4218   */\n      dup6\n        /* \"#utility.yul\":4208:4212   */\n      0x20\n        /* \"#utility.yul\":4201:4206   */\n      dup7\n        /* \"#utility.yul\":4197:4213   */\n      add\n        /* \"#utility.yul\":4175:4227   */\n      tag_196\n      jump\t// in\n    tag_195:\n        /* \"#utility.yul\":4252:4281   */\n      tag_197\n        /* \"#utility.yul\":4274:4280   */\n      dup2\n        /* \"#utility.yul\":4252:4281   */\n      tag_198\n      jump\t// in\n    tag_197:\n        /* \"#utility.yul\":4247:4250   */\n      dup5\n        /* \"#utility.yul\":4243:4282   */\n      add\n        /* \"#utility.yul\":4236:4282   */\n      swap2\n      pop\n        /* \"#utility.yul\":4026:4288   */\n      pop\n      swap3\n      swap2\n      pop\n      pop\n      jump\t// out\n        /* \"#utility.yul\":4294:4658   */\n    tag_199:\n      0x00\n        /* \"#utility.yul\":4410:4449   */\n      tag_201\n        /* \"#utility.yul\":4443:4448   */\n      dup3\n        /* \"#utility.yul\":4410:4449   */\n      tag_192\n      jump\t// in\n    tag_201:\n        /* \"#utility.yul\":4465:4536   */\n      tag_202\n        /* \"#utility.yul\":4529:4535   */\n      dup2\n        /* \"#utility.yul\":4524:4527   */\n      dup6\n        /* \"#utility.yul\":4465:4536   */\n      tag_203\n      jump\t// in\n    tag_202:\n        /* \"#utility.yul\":4458:4536   */\n      swap4\n      pop\n        /* \"#utility.yul\":4545:4597   */\n      tag_204\n        /* \"#utility.yul\":4590:4596   */\n      dup2\n        /* \"#utility.yul\":4585:4588   */\n      dup6\n        /* \"#utility.yul\":4578:4582   */\n      0x20\n        /* \"#utility.yul\":4571:4576   */\n      dup7\n        /* \"#utility.yul\":4567:4583   */\n      add\n        /* \"#utility.yul\":4545:4597   */\n      tag_196\n      jump\t// in\n    tag_204:\n        /* \"#utility.yul\":4622:4651   */\n      tag_205\n        /* \"#utility.yul\":4644:4650   */\n      dup2\n        /* \"#utility.yul\":4622:4651   */\n      tag_198\n      jump\t// in\n    tag_205:\n        /* \"#utility.yul\":4617:4620   */\n      dup5\n        /* \"#utility.yul\":4613:4652   */\n      add\n        /* \"#utility.yul\":4606:4652   */\n      swap2\n      pop\n        /* \"#utility.yul\":4386:4658   */\n      pop\n      swap3\n      swap2\n      pop\n      pop\n      jump\t// out\n        /* \"#utility.yul\":4664:4988   */\n    tag_206:\n      0x00\n        /* \"#utility.yul\":4827:4894   */\n      tag_208\n        /* \"#utility.yul\":4891:4893   */\n      0x1a\n        /* \"#utility.yul\":4886:4889   */\n      dup4\n        /* \"#utility.yul\":4827:4894   */\n      tag_203\n      jump\t// in\n    tag_208:\n        /* \"#utility.yul\":4820:4894   */\n      swap2\n      pop\n        /* \"#utility.yul\":4924:4952   */\n      0x43616e64696461746520696e70757420697320696e76616c6964000000000000\n        /* \"#utility.yul\":4920:4921   */\n      0x00\n        /* \"#utility.yul\":4915:4918   */\n      dup4\n        /* \"#utility.yul\":4911:4922   */\n      add\n        /* \"#utility.yul\":4904:4953   */\n      mstore\n        /* \"#utility.yul\":4979:4981   */\n      0x20\n        /* \"#utility.yul\":4974:4977   */\n      dup3\n        /* \"#utility.yul\":4970:4982   */\n      add\n        /* \"#utility.yul\":4963:4982   */\n      swap1\n      pop\n        /* \"#utility.yul\":4810:4988   */\n      swap2\n      swap1\n      pop\n      jump\t// out\n        /* \"#utility.yul\":5056:6084   */\n    tag_209:\n      0x00\n        /* \"#utility.yul\":5211:5215   */\n      0x80\n        /* \"#utility.yul\":5206:5209   */\n      dup4\n        /* \"#utility.yul\":5202:5216   */\n      add\n        /* \"#utility.yul\":5296:5300   */\n      0x00\n        /* \"#utility.yul\":5289:5294   */\n      dup4\n        /* \"#utility.yul\":5285:5301   */\n      add\n        /* \"#utility.yul\":5279:5302   */\n      mload\n        /* \"#utility.yul\":5315:5378   */\n      tag_211\n        /* \"#utility.yul\":5372:5376   */\n      0x00\n        /* \"#utility.yul\":5367:5370   */\n      dup7\n        /* \"#utility.yul\":5363:5377   */\n      add\n        /* \"#utility.yul\":5349:5361   */\n      dup3\n        /* \"#utility.yul\":5315:5378   */\n      tag_175\n      jump\t// in\n    tag_211:\n        /* \"#utility.yul\":5226:5388   */\n      pop\n        /* \"#utility.yul\":5470:5474   */\n      0x20\n        /* \"#utility.yul\":5463:5468   */\n      dup4\n        /* \"#utility.yul\":5459:5475   */\n      add\n        /* \"#utility.yul\":5453:5476   */\n      mload\n        /* \"#utility.yul\":5523:5526   */\n      dup5\n        /* \"#utility.yul\":5517:5521   */\n      dup3\n        /* \"#utility.yul\":5513:5527   */\n      sub\n        /* \"#utility.yul\":5506:5510   */\n      0x20\n        /* \"#utility.yul\":5501:5504   */\n      dup7\n        /* \"#utility.yul\":5497:5511   */\n      add\n        /* \"#utility.yul\":5490:5528   */\n      mstore\n        /* \"#utility.yul\":5549:5622   */\n      tag_212\n        /* \"#utility.yul\":5617:5621   */\n      dup3\n        /* \"#utility.yul\":5603:5615   */\n      dup3\n        /* \"#utility.yul\":5549:5622   */\n      tag_189\n      jump\t// in\n    tag_212:\n        /* \"#utility.yul\":5541:5622   */\n      swap2\n      pop\n        /* \"#utility.yul\":5398:5633   */\n      pop\n        /* \"#utility.yul\":5721:5725   */\n      0x40\n        /* \"#utility.yul\":5714:5719   */\n      dup4\n        /* \"#utility.yul\":5710:5726   */\n      add\n        /* \"#utility.yul\":5704:5727   */\n      mload\n        /* \"#utility.yul\":5740:5801   */\n      tag_213\n        /* \"#utility.yul\":5795:5799   */\n      0x40\n        /* \"#utility.yul\":5790:5793   */\n      dup7\n        /* \"#utility.yul\":5786:5800   */\n      add\n        /* \"#utility.yul\":5772:5784   */\n      dup3\n        /* \"#utility.yul\":5740:5801   */\n      tag_214\n      jump\t// in\n    tag_213:\n        /* \"#utility.yul\":5643:5811   */\n      pop\n        /* \"#utility.yul\":5894:5898   */\n      0x60\n        /* \"#utility.yul\":5887:5892   */\n      dup4\n        /* \"#utility.yul\":5883:5899   */\n      add\n        /* \"#utility.yul\":5877:5900   */\n      mload\n        /* \"#utility.yul\":5947:5950   */\n      dup5\n        /* \"#utility.yul\":5941:5945   */\n      dup3\n        /* \"#utility.yul\":5937:5951   */\n      sub\n        /* \"#utility.yul\":5930:5934   */\n      0x60\n        /* \"#utility.yul\":5925:5928   */\n      dup7\n        /* \"#utility.yul\":5921:5935   */\n      add\n        /* \"#utility.yul\":5914:5952   */\n      mstore\n        /* \"#utility.yul\":5973:6046   */\n      tag_215\n        /* \"#utility.yul\":6041:6045   */\n      dup3\n        /* \"#utility.yul\":6027:6039   */\n      dup3\n        /* \"#utility.yul\":5973:6046   */\n      tag_189\n      jump\t// in\n    tag_215:\n        /* \"#utility.yul\":5965:6046   */\n      swap2\n      pop\n        /* \"#utility.yul\":5821:6057   */\n      pop\n        /* \"#utility.yul\":6074:6078   */\n      dup1\n        /* \"#utility.yul\":6067:6078   */\n      swap2\n      pop\n        /* \"#utility.yul\":5180:6084   */\n      pop\n      swap3\n      swap2\n      pop\n      pop\n      jump\t// out\n        /* \"#utility.yul\":6158:6767   */\n    tag_216:\n      0x00\n        /* \"#utility.yul\":6319:6323   */\n      0x40\n        /* \"#utility.yul\":6314:6317   */\n      dup4\n        /* \"#utility.yul\":6310:6324   */\n      add\n        /* \"#utility.yul\":6408:6412   */\n      0x00\n        /* \"#utility.yul\":6401:6406   */\n      dup4\n        /* \"#utility.yul\":6397:6413   */\n      add\n        /* \"#utility.yul\":6391:6414   */\n      mload\n        /* \"#utility.yul\":6427:6484   */\n      tag_218\n        /* \"#utility.yul\":6478:6482   */\n      0x00\n        /* \"#utility.yul\":6473:6476   */\n      dup7\n        /* \"#utility.yul\":6469:6483   */\n      add\n        /* \"#utility.yul\":6455:6467   */\n      dup3\n        /* \"#utility.yul\":6427:6484   */\n      tag_182\n      jump\t// in\n    tag_218:\n        /* \"#utility.yul\":6334:6494   */\n      pop\n        /* \"#utility.yul\":6577:6581   */\n      0x20\n        /* \"#utility.yul\":6570:6575   */\n      dup4\n        /* \"#utility.yul\":6566:6582   */\n      add\n        /* \"#utility.yul\":6560:6583   */\n      mload\n        /* \"#utility.yul\":6630:6633   */\n      dup5\n        /* \"#utility.yul\":6624:6628   */\n      dup3\n        /* \"#utility.yul\":6620:6634   */\n      sub\n        /* \"#utility.yul\":6613:6617   */\n      0x20\n        /* \"#utility.yul\":6608:6611   */\n      dup7\n        /* \"#utility.yul\":6604:6618   */\n      add\n        /* \"#utility.yul\":6597:6635   */\n      mstore\n        /* \"#utility.yul\":6656:6729   */\n      tag_219\n        /* \"#utility.yul\":6724:6728   */\n      dup3\n        /* \"#utility.yul\":6710:6722   */\n      dup3\n        /* \"#utility.yul\":6656:6729   */\n      tag_189\n      jump\t// in\n    tag_219:\n        /* \"#utility.yul\":6648:6729   */\n      swap2\n      pop\n        /* \"#utility.yul\":6504:6740   */\n      pop\n        /* \"#utility.yul\":6757:6761   */\n      dup1\n        /* \"#utility.yul\":6750:6761   */\n      swap2\n      pop\n        /* \"#utility.yul\":6288:6767   */\n      pop\n      swap3\n      swap2\n      pop\n      pop\n      jump\t// out\n        /* \"#utility.yul\":6773:6878   */\n    tag_214:\n        /* \"#utility.yul\":6848:6871   */\n      tag_221\n        /* \"#utility.yul\":6865:6870   */\n      dup2\n        /* \"#utility.yul\":6848:6871   */\n      tag_222\n      jump\t// in\n    tag_221:\n        /* \"#utility.yul\":6843:6846   */\n      dup3\n        /* \"#utility.yul\":6836:6872   */\n      mstore\n        /* \"#utility.yul\":6826:6878   */\n      pop\n      pop\n      jump\t// out\n        /* \"#utility.yul\":6884:6999   */\n    tag_223:\n        /* \"#utility.yul\":6969:6992   */\n      tag_225\n        /* \"#utility.yul\":6986:6991   */\n      dup2\n        /* \"#utility.yul\":6969:6992   */\n      tag_222\n      jump\t// in\n    tag_225:\n        /* \"#utility.yul\":6964:6967   */\n      dup3\n        /* \"#utility.yul\":6957:6993   */\n      mstore\n        /* \"#utility.yul\":6947:6999   */\n      pop\n      pop\n      jump\t// out\n        /* \"#utility.yul\":7005:7736   */\n    tag_20:\n      0x00\n        /* \"#utility.yul\":7258:7261   */\n      0x80\n        /* \"#utility.yul\":7247:7256   */\n      dup3\n        /* \"#utility.yul\":7243:7262   */\n      add\n        /* \"#utility.yul\":7235:7262   */\n      swap1\n      pop\n        /* \"#utility.yul\":7272:7343   */\n      tag_227\n        /* \"#utility.yul\":7340:7341   */\n      0x00\n        /* \"#utility.yul\":7329:7338   */\n      dup4\n        /* \"#utility.yul\":7325:7342   */\n      add\n        /* \"#utility.yul\":7316:7322   */\n      dup8\n        /* \"#utility.yul\":7272:7343   */\n      tag_179\n      jump\t// in\n    tag_227:\n        /* \"#utility.yul\":7390:7399   */\n      dup2\n        /* \"#utility.yul\":7384:7388   */\n      dup2\n        /* \"#utility.yul\":7380:7400   */\n      sub\n        /* \"#utility.yul\":7375:7377   */\n      0x20\n        /* \"#utility.yul\":7364:7373   */\n      dup4\n        /* \"#utility.yul\":7360:7378   */\n      add\n        /* \"#utility.yul\":7353:7401   */\n      mstore\n        /* \"#utility.yul\":7418:7496   */\n      tag_228\n        /* \"#utility.yul\":7491:7495   */\n      dup2\n        /* \"#utility.yul\":7482:7488   */\n      dup7\n        /* \"#utility.yul\":7418:7496   */\n      tag_199\n      jump\t// in\n    tag_228:\n        /* \"#utility.yul\":7410:7496   */\n      swap1\n      pop\n        /* \"#utility.yul\":7506:7576   */\n      tag_229\n        /* \"#utility.yul\":7572:7574   */\n      0x40\n        /* \"#utility.yul\":7561:7570   */\n      dup4\n        /* \"#utility.yul\":7557:7575   */\n      add\n        /* \"#utility.yul\":7548:7554   */\n      dup6\n        /* \"#utility.yul\":7506:7576   */\n      tag_223\n      jump\t// in\n    tag_229:\n        /* \"#utility.yul\":7623:7632   */\n      dup2\n        /* \"#utility.yul\":7617:7621   */\n      dup2\n        /* \"#utility.yul\":7613:7633   */\n      sub\n        /* \"#utility.yul\":7608:7610   */\n      0x60\n        /* \"#utility.yul\":7597:7606   */\n      dup4\n        /* \"#utility.yul\":7593:7611   */\n      add\n        /* \"#utility.yul\":7586:7634   */\n      mstore\n        /* \"#utility.yul\":7651:7729   */\n      tag_230\n        /* \"#utility.yul\":7724:7728   */\n      dup2\n        /* \"#utility.yul\":7715:7721   */\n      dup5\n        /* \"#utility.yul\":7651:7729   */\n      tag_199\n      jump\t// in\n    tag_230:\n        /* \"#utility.yul\":7643:7729   */\n      swap1\n      pop\n        /* \"#utility.yul\":7225:7736   */\n      swap6\n      swap5\n      pop\n      pop\n      pop\n      pop\n      pop\n      jump\t// out\n        /* \"#utility.yul\":7742:8055   */\n    tag_14:\n      0x00\n        /* \"#utility.yul\":7893:7895   */\n      0x20\n        /* \"#utility.yul\":7882:7891   */\n      dup3\n        /* \"#utility.yul\":7878:7896   */\n      add\n        /* \"#utility.yul\":7870:7896   */\n      swap1\n      pop\n        /* \"#utility.yul\":7942:7951   */\n      dup2\n        /* \"#utility.yul\":7936:7940   */\n      dup2\n        /* \"#utility.yul\":7932:7952   */\n      sub\n        /* \"#utility.yul\":7928:7929   */\n      0x00\n        /* \"#utility.yul\":7917:7926   */\n      dup4\n        /* \"#utility.yul\":7913:7930   */\n      add\n        /* \"#utility.yul\":7906:7953   */\n      mstore\n        /* \"#utility.yul\":7970:8048   */\n      tag_232\n        /* \"#utility.yul\":8043:8047   */\n      dup2\n        /* \"#utility.yul\":8034:8040   */\n      dup5\n        /* \"#utility.yul\":7970:8048   */\n      tag_199\n      jump\t// in\n    tag_232:\n        /* \"#utility.yul\":7962:8048   */\n      swap1\n      pop\n        /* \"#utility.yul\":7860:8055   */\n      swap3\n      swap2\n      pop\n      pop\n      jump\t// out\n        /* \"#utility.yul\":8061:8480   */\n    tag_92:\n      0x00\n        /* \"#utility.yul\":8265:8267   */\n      0x20\n        /* \"#utility.yul\":8254:8263   */\n      dup3\n        /* \"#utility.yul\":8250:8268   */\n      add\n        /* \"#utility.yul\":8242:8268   */\n      swap1\n      pop\n        /* \"#utility.yul\":8314:8323   */\n      dup2\n        /* \"#utility.yul\":8308:8312   */\n      dup2\n        /* \"#utility.yul\":8304:8324   */\n      sub\n        /* \"#utility.yul\":8300:8301   */\n      0x00\n        /* \"#utility.yul\":8289:8298   */\n      dup4\n        /* \"#utility.yul\":8285:8302   */\n      add\n        /* \"#utility.yul\":8278:8325   */\n      mstore\n        /* \"#utility.yul\":8342:8473   */\n      tag_234\n        /* \"#utility.yul\":8468:8472   */\n      dup2\n        /* \"#utility.yul\":8342:8473   */\n      tag_206\n      jump\t// in\n    tag_234:\n        /* \"#utility.yul\":8334:8473   */\n      swap1\n      pop\n        /* \"#utility.yul\":8232:8480   */\n      swap2\n      swap1\n      pop\n      jump\t// out\n        /* \"#utility.yul\":8486:8957   */\n    tag_26:\n      0x00\n        /* \"#utility.yul\":8689:8691   */\n      0x40\n        /* \"#utility.yul\":8678:8687   */\n      dup3\n        /* \"#utility.yul\":8674:8692   */\n      add\n        /* \"#utility.yul\":8666:8692   */\n      swap1\n      pop\n        /* \"#utility.yul\":8738:8747   */\n      dup2\n        /* \"#utility.yul\":8732:8736   */\n      dup2\n        /* \"#utility.yul\":8728:8748   */\n      sub\n        /* \"#utility.yul\":8724:8725   */\n      0x00\n        /* \"#utility.yul\":8713:8722   */\n      dup4\n        /* \"#utility.yul\":8709:8726   */\n      add\n        /* \"#utility.yul\":8702:8749   */\n      mstore\n        /* \"#utility.yul\":8766:8874   */\n      tag_236\n        /* \"#utility.yul\":8869:8873   */\n      dup2\n        /* \"#utility.yul\":8860:8866   */\n      dup6\n        /* \"#utility.yul\":8766:8874   */\n      tag_209\n      jump\t// in\n    tag_236:\n        /* \"#utility.yul\":8758:8874   */\n      swap1\n      pop\n        /* \"#utility.yul\":8884:8950   */\n      tag_237\n        /* \"#utility.yul\":8946:8948   */\n      0x20\n        /* \"#utility.yul\":8935:8944   */\n      dup4\n        /* \"#utility.yul\":8931:8949   */\n      add\n        /* \"#utility.yul\":8922:8928   */\n      dup5\n        /* \"#utility.yul\":8884:8950   */\n      tag_186\n      jump\t// in\n    tag_237:\n        /* \"#utility.yul\":8656:8957   */\n      swap4\n      swap3\n      pop\n      pop\n      pop\n      jump\t// out\n        /* \"#utility.yul\":8963:9348   */\n    tag_39:\n      0x00\n        /* \"#utility.yul\":9150:9152   */\n      0x20\n        /* \"#utility.yul\":9139:9148   */\n      dup3\n        /* \"#utility.yul\":9135:9153   */\n      add\n        /* \"#utility.yul\":9127:9153   */\n      swap1\n      pop\n        /* \"#utility.yul\":9199:9208   */\n      dup2\n        /* \"#utility.yul\":9193:9197   */\n      dup2\n        /* \"#utility.yul\":9189:9209   */\n      sub\n        /* \"#utility.yul\":9185:9186   */\n      0x00\n        /* \"#utility.yul\":9174:9183   */\n      dup4\n        /* \"#utility.yul\":9170:9187   */\n      add\n        /* \"#utility.yul\":9163:9210   */\n      mstore\n        /* \"#utility.yul\":9227:9341   */\n      tag_239\n        /* \"#utility.yul\":9336:9340   */\n      dup2\n        /* \"#utility.yul\":9327:9333   */\n      dup5\n        /* \"#utility.yul\":9227:9341   */\n      tag_216\n      jump\t// in\n    tag_239:\n        /* \"#utility.yul\":9219:9341   */\n      swap1\n      pop\n        /* \"#utility.yul\":9117:9348   */\n      swap3\n      swap2\n      pop\n      pop\n      jump\t// out\n        /* \"#utility.yul\":9354:9637   */\n    tag_131:\n      0x00\n        /* \"#utility.yul\":9420:9422   */\n      0x40\n        /* \"#utility.yul\":9414:9423   */\n      mload\n        /* \"#utility.yul\":9404:9423   */\n      swap1\n      pop\n        /* \"#utility.yul\":9462:9466   */\n      dup2\n        /* \"#utility.yul\":9454:9460   */\n      dup2\n        /* \"#utility.yul\":9450:9467   */\n      add\n        /* \"#utility.yul\":9569:9575   */\n      dup2\n        /* \"#utility.yul\":9557:9567   */\n      dup2\n        /* \"#utility.yul\":9554:9576   */\n      lt\n        /* \"#utility.yul\":9533:9551   */\n      0xffffffffffffffff\n        /* \"#utility.yul\":9521:9531   */\n      dup3\n        /* \"#utility.yul\":9518:9552   */\n      gt\n        /* \"#utility.yul\":9515:9577   */\n      or\n        /* \"#utility.yul\":9512:9514   */\n      iszero\n      tag_241\n      jumpi\n        /* \"#utility.yul\":9580:9598   */\n      tag_242\n      tag_243\n      jump\t// in\n    tag_242:\n        /* \"#utility.yul\":9512:9514   */\n    tag_241:\n        /* \"#utility.yul\":9620:9630   */\n      dup1\n        /* \"#utility.yul\":9616:9618   */\n      0x40\n        /* \"#utility.yul\":9609:9631   */\n      mstore\n        /* \"#utility.yul\":9394:9637   */\n      pop\n      swap2\n      swap1\n      pop\n      jump\t// out\n        /* \"#utility.yul\":9643:9975   */\n    tag_130:\n      0x00\n        /* \"#utility.yul\":9795:9813   */\n      0xffffffffffffffff\n        /* \"#utility.yul\":9787:9793   */\n      dup3\n        /* \"#utility.yul\":9784:9814   */\n      gt\n        /* \"#utility.yul\":9781:9783   */\n      iszero\n      tag_245\n      jumpi\n        /* \"#utility.yul\":9817:9835   */\n      tag_246\n      tag_243\n      jump\t// in\n    tag_246:\n        /* \"#utility.yul\":9781:9783   */\n    tag_245:\n        /* \"#utility.yul\":9902:9906   */\n      0x1f\n        /* \"#utility.yul\":9898:9907   */\n      not\n        /* \"#utility.yul\":9891:9895   */\n      0x1f\n        /* \"#utility.yul\":9883:9889   */\n      dup4\n        /* \"#utility.yul\":9879:9896   */\n      add\n        /* \"#utility.yul\":9875:9908   */\n      and\n        /* \"#utility.yul\":9867:9908   */\n      swap1\n      pop\n        /* \"#utility.yul\":9963:9967   */\n      0x20\n        /* \"#utility.yul\":9957:9961   */\n      dup2\n        /* \"#utility.yul\":9953:9968   */\n      add\n        /* \"#utility.yul\":9945:9968   */\n      swap1\n      pop\n        /* \"#utility.yul\":9710:9975   */\n      swap2\n      swap1\n      pop\n      jump\t// out\n        /* \"#utility.yul\":9981:10080   */\n    tag_192:\n      0x00\n        /* \"#utility.yul\":10067:10072   */\n      dup2\n        /* \"#utility.yul\":10061:10073   */\n      mload\n        /* \"#utility.yul\":10051:10073   */\n      swap1\n      pop\n        /* \"#utility.yul\":10040:10080   */\n      swap2\n      swap1\n      pop\n      jump\t// out\n        /* \"#utility.yul\":10086:10245   */\n    tag_194:\n      0x00\n        /* \"#utility.yul\":10194:10200   */\n      dup3\n        /* \"#utility.yul\":10189:10192   */\n      dup3\n        /* \"#utility.yul\":10182:10201   */\n      mstore\n        /* \"#utility.yul\":10234:10238   */\n      0x20\n        /* \"#utility.yul\":10229:10232   */\n      dup3\n        /* \"#utility.yul\":10225:10239   */\n      add\n        /* \"#utility.yul\":10210:10239   */\n      swap1\n      pop\n        /* \"#utility.yul\":10172:10245   */\n      swap3\n      swap2\n      pop\n      pop\n      jump\t// out\n        /* \"#utility.yul\":10251:10420   */\n    tag_203:\n      0x00\n        /* \"#utility.yul\":10369:10375   */\n      dup3\n        /* \"#utility.yul\":10364:10367   */\n      dup3\n        /* \"#utility.yul\":10357:10376   */\n      mstore\n        /* \"#utility.yul\":10409:10413   */\n      0x20\n        /* \"#utility.yul\":10404:10407   */\n      dup3\n        /* \"#utility.yul\":10400:10414   */\n      add\n        /* \"#utility.yul\":10385:10414   */\n      swap1\n      pop\n        /* \"#utility.yul\":10347:10420   */\n      swap3\n      swap2\n      pop\n      pop\n      jump\t// out\n        /* \"#utility.yul\":10426:10522   */\n    tag_178:\n      0x00\n        /* \"#utility.yul\":10492:10516   */\n      tag_251\n        /* \"#utility.yul\":10510:10515   */\n      dup3\n        /* \"#utility.yul\":10492:10516   */\n      tag_252\n      jump\t// in\n    tag_251:\n        /* \"#utility.yul\":10481:10516   */\n      swap1\n      pop\n        /* \"#utility.yul\":10471:10522   */\n      swap2\n      swap1\n      pop\n      jump\t// out\n        /* \"#utility.yul\":10528:10618   */\n    tag_185:\n      0x00\n        /* \"#utility.yul\":10605:10610   */\n      dup2\n        /* \"#utility.yul\":10598:10611   */\n      iszero\n        /* \"#utility.yul\":10591:10612   */\n      iszero\n        /* \"#utility.yul\":10580:10612   */\n      swap1\n      pop\n        /* \"#utility.yul\":10570:10618   */\n      swap2\n      swap1\n      pop\n      jump\t// out\n        /* \"#utility.yul\":10624:10713   */\n    tag_222:\n      0x00\n        /* \"#utility.yul\":10700:10706   */\n      0xffff\n        /* \"#utility.yul\":10693:10698   */\n      dup3\n        /* \"#utility.yul\":10689:10707   */\n      and\n        /* \"#utility.yul\":10678:10707   */\n      swap1\n      pop\n        /* \"#utility.yul\":10668:10713   */\n      swap2\n      swap1\n      pop\n      jump\t// out\n        /* \"#utility.yul\":10719:10845   */\n    tag_252:\n      0x00\n        /* \"#utility.yul\":10796:10838   */\n      0xffffffffffffffffffffffffffffffffffffffff\n        /* \"#utility.yul\":10789:10794   */\n      dup3\n        /* \"#utility.yul\":10785:10839   */\n      and\n        /* \"#utility.yul\":10774:10839   */\n      swap1\n      pop\n        /* \"#utility.yul\":10764:10845   */\n      swap2\n      swap1\n      pop\n      jump\t// out\n        /* \"#utility.yul\":10851:10928   */\n    tag_256:\n      0x00\n        /* \"#utility.yul\":10917:10922   */\n      dup2\n        /* \"#utility.yul\":10906:10922   */\n      swap1\n      pop\n        /* \"#utility.yul\":10896:10928   */\n      swap2\n      swap1\n      pop\n      jump\t// out\n        /* \"#utility.yul\":10934:11088   */\n    tag_134:\n        /* \"#utility.yul\":11018:11024   */\n      dup3\n        /* \"#utility.yul\":11013:11016   */\n      dup2\n        /* \"#utility.yul\":11008:11011   */\n      dup4\n        /* \"#utility.yul\":10995:11025   */\n      calldatacopy\n        /* \"#utility.yul\":11080:11081   */\n      0x00\n        /* \"#utility.yul\":11071:11077   */\n      dup4\n        /* \"#utility.yul\":11066:11069   */\n      dup4\n        /* \"#utility.yul\":11062:11078   */\n      add\n        /* \"#utility.yul\":11055:11082   */\n      mstore\n        /* \"#utility.yul\":10985:11088   */\n      pop\n      pop\n      pop\n      jump\t// out\n        /* \"#utility.yul\":11094:11401   */\n    tag_196:\n        /* \"#utility.yul\":11162:11163   */\n      0x00\n        /* \"#utility.yul\":11172:11285   */\n    tag_260:\n        /* \"#utility.yul\":11186:11192   */\n      dup4\n        /* \"#utility.yul\":11183:11184   */\n      dup2\n        /* \"#utility.yul\":11180:11193   */\n      lt\n        /* \"#utility.yul\":11172:11285   */\n      iszero\n      tag_262\n      jumpi\n        /* \"#utility.yul\":11271:11272   */\n      dup1\n        /* \"#utility.yul\":11266:11269   */\n      dup3\n        /* \"#utility.yul\":11262:11273   */\n      add\n        /* \"#utility.yul\":11256:11274   */\n      mload\n        /* \"#utility.yul\":11252:11253   */\n      dup2\n        /* \"#utility.yul\":11247:11250   */\n      dup5\n        /* \"#utility.yul\":11243:11254   */\n      add\n        /* \"#utility.yul\":11236:11275   */\n      mstore\n        /* \"#utility.yul\":11208:11210   */\n      0x20\n        /* \"#utility.yul\":11205:11206   */\n      dup2\n        /* \"#utility.yul\":11201:11211   */\n      add\n        /* \"#utility.yul\":11196:11211   */\n      swap1\n      pop\n        /* \"#utility.yul\":11172:11285   */\n      jump(tag_260)\n    tag_262:\n        /* \"#utility.yul\":11303:11309   */\n      dup4\n        /* \"#utility.yul\":11300:11301   */\n      dup2\n        /* \"#utility.yul\":11297:11310   */\n      gt\n        /* \"#utility.yul\":11294:11296   */\n      iszero\n      tag_263\n      jumpi\n        /* \"#utility.yul\":11383:11384   */\n      0x00\n        /* \"#utility.yul\":11374:11380   */\n      dup5\n        /* \"#utility.yul\":11369:11372   */\n      dup5\n        /* \"#utility.yul\":11365:11381   */\n      add\n        /* \"#utility.yul\":11358:11385   */\n      mstore\n        /* \"#utility.yul\":11294:11296   */\n    tag_263:\n        /* \"#utility.yul\":11143:11401   */\n      pop\n      pop\n      pop\n      pop\n      jump\t// out\n        /* \"#utility.yul\":11407:11727   */\n    tag_44:\n      0x00\n        /* \"#utility.yul\":11488:11489   */\n      0x02\n        /* \"#utility.yul\":11482:11486   */\n      dup3\n        /* \"#utility.yul\":11478:11490   */\n      div\n        /* \"#utility.yul\":11468:11490   */\n      swap1\n      pop\n        /* \"#utility.yul\":11535:11536   */\n      0x01\n        /* \"#utility.yul\":11529:11533   */\n      dup3\n        /* \"#utility.yul\":11525:11537   */\n      and\n        /* \"#utility.yul\":11556:11574   */\n      dup1\n        /* \"#utility.yul\":11546:11548   */\n      tag_265\n      jumpi\n        /* \"#utility.yul\":11612:11616   */\n      0x7f\n        /* \"#utility.yul\":11604:11610   */\n      dup3\n        /* \"#utility.yul\":11600:11617   */\n      and\n        /* \"#utility.yul\":11590:11617   */\n      swap2\n      pop\n        /* \"#utility.yul\":11546:11548   */\n    tag_265:\n        /* \"#utility.yul\":11674:11676   */\n      0x20\n        /* \"#utility.yul\":11666:11672   */\n      dup3\n        /* \"#utility.yul\":11663:11677   */\n      lt\n        /* \"#utility.yul\":11643:11661   */\n      dup2\n        /* \"#utility.yul\":11640:11678   */\n      eq\n        /* \"#utility.yul\":11637:11639   */\n      iszero\n      tag_266\n      jumpi\n        /* \"#utility.yul\":11693:11711   */\n      tag_267\n      tag_268\n      jump\t// in\n    tag_267:\n        /* \"#utility.yul\":11637:11639   */\n    tag_266:\n        /* \"#utility.yul\":11458:11727   */\n      pop\n      swap2\n      swap1\n      pop\n      jump\t// out\n        /* \"#utility.yul\":11733:11966   */\n    tag_83:\n      0x00\n        /* \"#utility.yul\":11795:11819   */\n      tag_270\n        /* \"#utility.yul\":11813:11818   */\n      dup3\n        /* \"#utility.yul\":11795:11819   */\n      tag_256\n      jump\t// in\n    tag_270:\n        /* \"#utility.yul\":11786:11819   */\n      swap2\n      pop\n        /* \"#utility.yul\":11841:11907   */\n      0xffffffffffffffffffffffffffffffffffffffffffffffffffffffffffffffff\n        /* \"#utility.yul\":11834:11839   */\n      dup3\n        /* \"#utility.yul\":11831:11908   */\n      eq\n        /* \"#utility.yul\":11828:11830   */\n      iszero\n      tag_271\n      jumpi\n        /* \"#utility.yul\":11911:11929   */\n      tag_272\n      tag_273\n      jump\t// in\n    tag_272:\n        /* \"#utility.yul\":11828:11830   */\n    tag_271:\n        /* \"#utility.yul\":11958:11959   */\n      0x01\n        /* \"#utility.yul\":11951:11956   */\n      dup3\n        /* \"#utility.yul\":11947:11960   */\n      add\n        /* \"#utility.yul\":11940:11960   */\n      swap1\n      pop\n        /* \"#utility.yul\":11776:11966   */\n      swap2\n      swap1\n      pop\n      jump\t// out\n        /* \"#utility.yul\":11972:12152   */\n    tag_273:\n        /* \"#utility.yul\":12020:12097   */\n      0x4e487b7100000000000000000000000000000000000000000000000000000000\n        /* \"#utility.yul\":12017:12018   */\n      0x00\n        /* \"#utility.yul\":12010:12098   */\n      mstore\n        /* \"#utility.yul\":12117:12121   */\n      0x11\n        /* \"#utility.yul\":12114:12115   */\n      0x04\n        /* \"#utility.yul\":12107:12122   */\n      mstore\n        /* \"#utility.yul\":12141:12145   */\n      0x24\n        /* \"#utility.yul\":12138:12139   */\n      0x00\n        /* \"#utility.yul\":12131:12146   */\n      revert\n        /* \"#utility.yul\":12158:12338   */\n    tag_268:\n        /* \"#utility.yul\":12206:12283   */\n      0x4e487b7100000000000000000000000000000000000000000000000000000000\n        /* \"#utility.yul\":12203:12204   */\n      0x00\n        /* \"#utility.yul\":12196:12284   */\n      mstore\n        /* \"#utility.yul\":12303:12307   */\n      0x22\n        /* \"#utility.yul\":12300:12301   */\n      0x04\n        /* \"#utility.yul\":12293:12308   */\n      mstore\n        /* \"#utility.yul\":12327:12331   */\n      0x24\n        /* \"#utility.yul\":12324:12325   */\n      0x00\n        /* \"#utility.yul\":12317:12332   */\n      revert\n        /* \"#utility.yul\":12344:12524   */\n    tag_243:\n        /* \"#utility.yul\":12392:12469   */\n      0x4e487b7100000000000000000000000000000000000000000000000000000000\n        /* \"#utility.yul\":12389:12390   */\n      0x00\n        /* \"#utility.yul\":12382:12470   */\n      mstore\n        /* \"#utility.yul\":12489:12493   */\n      0x41\n        /* \"#utility.yul\":12486:12487   */\n      0x04\n        /* \"#utility.yul\":12479:12494   */\n      mstore\n        /* \"#utility.yul\":12513:12517   */\n      0x24\n        /* \"#utility.yul\":12510:12511   */\n      0x00\n        /* \"#utility.yul\":12503:12518   */\n      revert\n        /* \"#utility.yul\":12530:12632   */\n    tag_198:\n      0x00\n        /* \"#utility.yul\":12622:12624   */\n      0x1f\n        /* \"#utility.yul\":12618:12625   */\n      not\n        /* \"#utility.yul\":12613:12615   */\n      0x1f\n        /* \"#utility.yul\":12606:12611   */\n      dup4\n        /* \"#utility.yul\":12602:12616   */\n      add\n        /* \"#utility.yul\":12598:12626   */\n      and\n        /* \"#utility.yul\":12588:12626   */\n      swap1\n      pop\n        /* \"#utility.yul\":12578:12632   */\n      swap2\n      swap1\n      pop\n      jump\t// out\n        /* \"#utility.yul\":12638:12760   */\n    tag_138:\n        /* \"#utility.yul\":12711:12735   */\n      tag_279\n        /* \"#utility.yul\":12729:12734   */\n      dup2\n        /* \"#utility.yul\":12711:12735   */\n      tag_178\n      jump\t// in\n    tag_279:\n        /* \"#utility.yul\":12704:12709   */\n      dup2\n        /* \"#utility.yul\":12701:12736   */\n      eq\n        /* \"#utility.yul\":12691:12693   */\n      tag_280\n      jumpi\n        /* \"#utility.yul\":12750:12751   */\n      0x00\n        /* \"#utility.yul\":12747:12748   */\n      dup1\n        /* \"#utility.yul\":12740:12752   */\n      revert\n        /* \"#utility.yul\":12691:12693   */\n    tag_280:\n        /* \"#utility.yul\":12681:12760   */\n      pop\n      jump\t// out\n        /* \"#utility.yul\":12766:12886   */\n    tag_156:\n        /* \"#utility.yul\":12838:12861   */\n      tag_282\n        /* \"#utility.yul\":12855:12860   */\n      dup2\n        /* \"#utility.yul\":12838:12861   */\n      tag_222\n      jump\t// in\n    tag_282:\n        /* \"#utility.yul\":12831:12836   */\n      dup2\n        /* \"#utility.yul\":12828:12862   */\n      eq\n        /* \"#utility.yul\":12818:12820   */\n      tag_283\n      jumpi\n        /* \"#utility.yul\":12876:12877   */\n      0x00\n        /* \"#utility.yul\":12873:12874   */\n      dup1\n        /* \"#utility.yul\":12866:12878   */\n      revert\n        /* \"#utility.yul\":12818:12820   */\n    tag_283:\n        /* \"#utility.yul\":12808:12886   */\n      pop\n      jump\t// out\n        /* \"#utility.yul\":12892:13014   */\n    tag_160:\n        /* \"#utility.yul\":12965:12989   */\n      tag_285\n        /* \"#utility.yul\":12983:12988   */\n      dup2\n        /* \"#utility.yul\":12965:12989   */\n      tag_256\n      jump\t// in\n    tag_285:\n        /* \"#utility.yul\":12958:12963   */\n      dup2\n        /* \"#utility.yul\":12955:12990   */\n      eq\n        /* \"#utility.yul\":12945:12947   */\n      tag_286\n      jumpi\n        /* \"#utility.yul\":13004:13005   */\n      0x00\n        /* \"#utility.yul\":13001:13002   */\n      dup1\n        /* \"#utility.yul\":12994:13006   */\n      revert\n        /* \"#utility.yul\":12945:12947   */\n    tag_286:\n        /* \"#utility.yul\":12935:13014   */\n      pop\n      jump\t// out\n\n    auxdata: 0xa26469706673582212201c62e087a3e00202414b55fab150437dd9db4f9eed775ed4c2bdd1a8efcb2a7664736f6c63430008000033\n}\n",
				"bytecode": {
					"linkReferences": {},
					"object": "608060405234801561001057600080fd5b50611250806100206000396000f3fe608060405234801561001057600080fd5b506004361061007d5760003560e01c80638e0cfbc21161005b5780638e0cfbc214610104578063ce21f15a14610120578063ddb6e1161461013c578063fde081741461016c5761007d565b806310055c1d146100825780633477ee2e146100a057806374c53f56146100d3575b600080fd5b61008a61018a565b6040516100979190610f02565b60405180910390f35b6100ba60048036038101906100b59190610cd3565b610218565b6040516100ca9493929190610eaf565b60405180910390f35b6100ed60048036038101906100e89190610caa565b610396565b6040516100fb929190610f44565b60405180910390f35b61011e60048036038101906101199190610c28565b610693565b005b61013a60048036038101906101359190610c69565b6106ad565b005b61015660048036038101906101519190610caa565b6107ca565b6040516101639190610f74565b60405180910390f35b61017461086a565b6040516101819190610f02565b60405180910390f35b60008054610197906110bc565b80601f01602080910402602001604051908101604052809291908181526020018280546101c3906110bc565b80156102105780601f106101e557610100808354040283529160200191610210565b820191906000526020600020905b8154815290600101906020018083116101f357829003601f168201915b505050505081565b6001818154811061022857600080fd5b90600052602060002090600402016000915090508060000160009054906101000a900473ffffffffffffffffffffffffffffffffffffffff1690806001018054610271906110bc565b80601f016020809104026020016040519081016040528092919081815260200182805461029d906110bc565b80156102ea5780601f106102bf576101008083540402835291602001916102ea565b820191906000526020600020905b8154815290600101906020018083116102cd57829003601f168201915b5050505050908060020160009054906101000a900461ffff1690806003018054610313906110bc565b80601f016020809104026020016040519081016040528092919081815260200182805461033f906110bc565b801561038c5780601f106103615761010080835404028352916020019161038c565b820191906000526020600020905b81548152906001019060200180831161036f57829003601f168201915b5050505050905084565b61039e6109dc565b600080600090505b60018054905081101561062b578361ffff16600182815481106103f2577f4e487b7100000000000000000000000000000000000000000000000000000000600052603260045260246000fd5b906000526020600020906004020160020160009054906101000a900461ffff1661ffff1614156106185760018181548110610456577f4e487b7100000000000000000000000000000000000000000000000000000000600052603260045260246000fd5b90600052602060002090600402016001816040518060800160405290816000820160009054906101000a900473ffffffffffffffffffffffffffffffffffffffff1673ffffffffffffffffffffffffffffffffffffffff1673ffffffffffffffffffffffffffffffffffffffff1681526020016001820180546104d8906110bc565b80601f0160208091040260200160405190810160405280929190818152602001828054610504906110bc565b80156105515780601f1061052657610100808354040283529160200191610551565b820191906000526020600020905b81548152906001019060200180831161053457829003601f168201915b505050505081526020016002820160009054906101000a900461ffff1661ffff1661ffff16815260200160038201805461058a906110bc565b80601f01602080910402602001604051908101604052809291908181526020018280546105b6906110bc565b80156106035780601f106105d857610100808354040283529160200191610603565b820191906000526020600020905b8154815290600101906020018083116105e657829003601f168201915b5050505050815250509150925092505061068e565b8080610623906110ee565b9150506103a6565b506040518060800160405280600073ffffffffffffffffffffffffffffffffffffffff168152602001604051806020016040528060008152508152602001600061ffff168152602001604051806020016040528060008152508152506000915091505b915091565b80600090805190602001906106a9929190610a1e565b5050565b6106b6816108fc565b6106f5576040517f08c379a00000000000000000000000000000000000000000000000000000000081526004016106ec90610f24565b60405180910390fd5b600181908060018154018082558091505060019003906000526020600020906004020160009091909190915060008201518160000160006101000a81548173ffffffffffffffffffffffffffffffffffffffff021916908373ffffffffffffffffffffffffffffffffffffffff1602179055506020820151816001019080519060200190610784929190610a1e565b5060408201518160020160006101000a81548161ffff021916908361ffff16021790555060608201518160030190805190602001906107c4929190610a1e565b50505050565b6107d2610aa4565b60006107dd83610396565b9150508061083a5760405180604001604052806000151581526020016040518060400160405280601481526020017f43616e646964617465206e6f7420666f756e6421000000000000000000000000815250815250915050610865565b6040518060400160405280600115158152602001604051806020016040528060008152508152509150505b919050565b606060008054610879906110bc565b80601f01602080910402602001604051908101604052809291908181526020018280546108a5906110bc565b80156108f25780601f106108c7576101008083540402835291602001916108f2565b820191906000526020600020905b8154815290600101906020018083116108d557829003601f168201915b5050505050905090565b600080600090505b6001805490508110156109d1576001818154811061094b577f4e487b7100000000000000000000000000000000000000000000000000000000600052603260045260246000fd5b906000526020600020906004020160000160009054906101000a900473ffffffffffffffffffffffffffffffffffffffff1673ffffffffffffffffffffffffffffffffffffffff16836000015173ffffffffffffffffffffffffffffffffffffffff1614156109be5760009150506109d7565b80806109c9906110ee565b915050610904565b50600190505b919050565b6040518060800160405280600073ffffffffffffffffffffffffffffffffffffffff16815260200160608152602001600061ffff168152602001606081525090565b828054610a2a906110bc565b90600052602060002090601f016020900481019282610a4c5760008555610a93565b82601f10610a6557805160ff1916838001178555610a93565b82800160010185558215610a93579182015b82811115610a92578251825591602001919060010190610a77565b5b509050610aa09190610ac0565b5090565b6040518060400160405280600015158152602001606081525090565b5b80821115610ad9576000816000905550600101610ac1565b5090565b6000610af0610aeb84610fc7565b610f96565b905082815260208101848484011115610b0857600080fd5b610b1384828561107a565b509392505050565b600081359050610b2a816111d5565b92915050565b600082601f830112610b4157600080fd5b8135610b51848260208601610add565b91505092915050565b600060808284031215610b6c57600080fd5b610b766080610f96565b90506000610b8684828501610b1b565b600083015250602082013567ffffffffffffffff811115610ba657600080fd5b610bb284828501610b30565b6020830152506040610bc684828501610bfe565b604083015250606082013567ffffffffffffffff811115610be657600080fd5b610bf284828501610b30565b60608301525092915050565b600081359050610c0d816111ec565b92915050565b600081359050610c2281611203565b92915050565b600060208284031215610c3a57600080fd5b600082013567ffffffffffffffff811115610c5457600080fd5b610c6084828501610b30565b91505092915050565b600060208284031215610c7b57600080fd5b600082013567ffffffffffffffff811115610c9557600080fd5b610ca184828501610b5a565b91505092915050565b600060208284031215610cbc57600080fd5b6000610cca84828501610bfe565b91505092915050565b600060208284031215610ce557600080fd5b6000610cf384828501610c13565b91505092915050565b610d0581611024565b82525050565b610d1481611024565b82525050565b610d2381611036565b82525050565b610d3281611036565b82525050565b6000610d4382610ff7565b610d4d8185611002565b9350610d5d818560208601611089565b610d66816111c4565b840191505092915050565b6000610d7c82610ff7565b610d868185611013565b9350610d96818560208601611089565b610d9f816111c4565b840191505092915050565b6000610db7601a83611013565b91507f43616e64696461746520696e70757420697320696e76616c69640000000000006000830152602082019050919050565b6000608083016000830151610e026000860182610cfc565b5060208301518482036020860152610e1a8282610d38565b9150506040830151610e2f6040860182610e91565b5060608301518482036060860152610e478282610d38565b9150508091505092915050565b6000604083016000830151610e6c6000860182610d1a565b5060208301518482036020860152610e848282610d38565b9150508091505092915050565b610e9a81611042565b82525050565b610ea981611042565b82525050565b6000608082019050610ec46000830187610d0b565b8181036020830152610ed68186610d71565b9050610ee56040830185610ea0565b8181036060830152610ef78184610d71565b905095945050505050565b60006020820190508181036000830152610f1c8184610d71565b905092915050565b60006020820190508181036000830152610f3d81610daa565b9050919050565b60006040820190508181036000830152610f5e8185610dea565b9050610f6d6020830184610d29565b9392505050565b60006020820190508181036000830152610f8e8184610e54565b905092915050565b6000604051905081810181811067ffffffffffffffff82111715610fbd57610fbc611195565b5b8060405250919050565b600067ffffffffffffffff821115610fe257610fe1611195565b5b601f19601f8301169050602081019050919050565b600081519050919050565b600082825260208201905092915050565b600082825260208201905092915050565b600061102f82611050565b9050919050565b60008115159050919050565b600061ffff82169050919050565b600073ffffffffffffffffffffffffffffffffffffffff82169050919050565b6000819050919050565b82818337600083830152505050565b60005b838110156110a757808201518184015260208101905061108c565b838111156110b6576000848401525b50505050565b600060028204905060018216806110d457607f821691505b602082108114156110e8576110e7611166565b5b50919050565b60006110f982611070565b91507fffffffffffffffffffffffffffffffffffffffffffffffffffffffffffffffff82141561112c5761112b611137565b5b600182019050919050565b7f4e487b7100000000000000000000000000000000000000000000000000000000600052601160045260246000fd5b7f4e487b7100000000000000000000000000000000000000000000000000000000600052602260045260246000fd5b7f4e487b7100000000000000000000000000000000000000000000000000000000600052604160045260246000fd5b6000601f19601f8301169050919050565b6111de81611024565b81146111e957600080fd5b50565b6111f581611042565b811461120057600080fd5b50565b61120c81611070565b811461121757600080fd5b5056fea26469706673582212201c62e087a3e00202414b55fab150437dd9db4f9eed775ed4c2bdd1a8efcb2a7664736f6c63430008000033",
					"opcodes": "PUSH1 0x80 PUSH1 0x40 MSTORE CALLVALUE DUP1 ISZERO PUSH2 0x10 JUMPI PUSH1 0x0 DUP1 REVERT JUMPDEST POP PUSH2 0x1250 DUP1 PUSH2 0x20 PUSH1 0x0 CODECOPY PUSH1 0x0 RETURN INVALID PUSH1 0x80 PUSH1 0x40 MSTORE CALLVALUE DUP1 ISZERO PUSH2 0x10 JUMPI PUSH1 0x0 DUP1 REVERT JUMPDEST POP PUSH1 0x4 CALLDATASIZE LT PUSH2 0x7D JUMPI PUSH1 0x0 CALLDATALOAD PUSH1 0xE0 SHR DUP1 PUSH4 0x8E0CFBC2 GT PUSH2 0x5B JUMPI DUP1 PUSH4 0x8E0CFBC2 EQ PUSH2 0x104 JUMPI DUP1 PUSH4 0xCE21F15A EQ PUSH2 0x120 JUMPI DUP1 PUSH4 0xDDB6E116 EQ PUSH2 0x13C JUMPI DUP1 PUSH4 0xFDE08174 EQ PUSH2 0x16C JUMPI PUSH2 0x7D JUMP JUMPDEST DUP1 PUSH4 0x10055C1D EQ PUSH2 0x82 JUMPI DUP1 PUSH4 0x3477EE2E EQ PUSH2 0xA0 JUMPI DUP1 PUSH4 0x74C53F56 EQ PUSH2 0xD3 JUMPI JUMPDEST PUSH1 0x0 DUP1 REVERT JUMPDEST PUSH2 0x8A PUSH2 0x18A JUMP JUMPDEST PUSH1 0x40 MLOAD PUSH2 0x97 SWAP2 SWAP1 PUSH2 0xF02 JUMP JUMPDEST PUSH1 0x40 MLOAD DUP1 SWAP2 SUB SWAP1 RETURN JUMPDEST PUSH2 0xBA PUSH1 0x4 DUP1 CALLDATASIZE SUB DUP2 ADD SWAP1 PUSH2 0xB5 SWAP2 SWAP1 PUSH2 0xCD3 JUMP JUMPDEST PUSH2 0x218 JUMP JUMPDEST PUSH1 0x40 MLOAD PUSH2 0xCA SWAP5 SWAP4 SWAP3 SWAP2 SWAP1 PUSH2 0xEAF JUMP JUMPDEST PUSH1 0x40 MLOAD DUP1 SWAP2 SUB SWAP1 RETURN JUMPDEST PUSH2 0xED PUSH1 0x4 DUP1 CALLDATASIZE SUB DUP2 ADD SWAP1 PUSH2 0xE8 SWAP2 SWAP1 PUSH2 0xCAA JUMP JUMPDEST PUSH2 0x396 JUMP JUMPDEST PUSH1 0x40 MLOAD PUSH2 0xFB SWAP3 SWAP2 SWAP1 PUSH2 0xF44 JUMP JUMPDEST PUSH1 0x40 MLOAD DUP1 SWAP2 SUB SWAP1 RETURN JUMPDEST PUSH2 0x11E PUSH1 0x4 DUP1 CALLDATASIZE SUB DUP2 ADD SWAP1 PUSH2 0x119 SWAP2 SWAP1 PUSH2 0xC28 JUMP JUMPDEST PUSH2 0x693 JUMP JUMPDEST STOP JUMPDEST PUSH2 0x13A PUSH1 0x4 DUP1 CALLDATASIZE SUB DUP2 ADD SWAP1 PUSH2 0x135 SWAP2 SWAP1 PUSH2 0xC69 JUMP JUMPDEST PUSH2 0x6AD JUMP JUMPDEST STOP JUMPDEST PUSH2 0x156 PUSH1 0x4 DUP1 CALLDATASIZE SUB DUP2 ADD SWAP1 PUSH2 0x151 SWAP2 SWAP1 PUSH2 0xCAA JUMP JUMPDEST PUSH2 0x7CA JUMP JUMPDEST PUSH1 0x40 MLOAD PUSH2 0x163 SWAP2 SWAP1 PUSH2 0xF74 JUMP JUMPDEST PUSH1 0x40 MLOAD DUP1 SWAP2 SUB SWAP1 RETURN JUMPDEST PUSH2 0x174 PUSH2 0x86A JUMP JUMPDEST PUSH1 0x40 MLOAD PUSH2 0x181 SWAP2 SWAP1 PUSH2 0xF02 JUMP JUMPDEST PUSH1 0x40 MLOAD DUP1 SWAP2 SUB SWAP1 RETURN JUMPDEST PUSH1 0x0 DUP1 SLOAD PUSH2 0x197 SWAP1 PUSH2 0x10BC JUMP JUMPDEST DUP1 PUSH1 0x1F ADD PUSH1 0x20 DUP1 SWAP2 DIV MUL PUSH1 0x20 ADD PUSH1 0x40 MLOAD SWAP1 DUP2 ADD PUSH1 0x40 MSTORE DUP1 SWAP3 SWAP2 SWAP1 DUP2 DUP2 MSTORE PUSH1 0x20 ADD DUP3 DUP1 SLOAD PUSH2 0x1C3 SWAP1 PUSH2 0x10BC JUMP JUMPDEST DUP1 ISZERO PUSH2 0x210 JUMPI DUP1 PUSH1 0x1F LT PUSH2 0x1E5 JUMPI PUSH2 0x100 DUP1 DUP4 SLOAD DIV MUL DUP4 MSTORE SWAP2 PUSH1 0x20 ADD SWAP2 PUSH2 0x210 JUMP JUMPDEST DUP3 ADD SWAP2 SWAP1 PUSH1 0x0 MSTORE PUSH1 0x20 PUSH1 0x0 KECCAK256 SWAP1 JUMPDEST DUP2 SLOAD DUP2 MSTORE SWAP1 PUSH1 0x1 ADD SWAP1 PUSH1 0x20 ADD DUP1 DUP4 GT PUSH2 0x1F3 JUMPI DUP3 SWAP1 SUB PUSH1 0x1F AND DUP3 ADD SWAP2 JUMPDEST POP POP POP POP POP DUP2 JUMP JUMPDEST PUSH1 0x1 DUP2 DUP2 SLOAD DUP2 LT PUSH2 0x228 JUMPI PUSH1 0x0 DUP1 REVERT JUMPDEST SWAP1 PUSH1 0x0 MSTORE PUSH1 0x20 PUSH1 0x0 KECCAK256 SWAP1 PUSH1 0x4 MUL ADD PUSH1 0x0 SWAP2 POP SWAP1 POP DUP1 PUSH1 0x0 ADD PUSH1 0x0 SWAP1 SLOAD SWAP1 PUSH2 0x100 EXP SWAP1 DIV PUSH20 0xFFFFFFFFFFFFFFFFFFFFFFFFFFFFFFFFFFFFFFFF AND SWAP1 DUP1 PUSH1 0x1 ADD DUP1 SLOAD PUSH2 0x271 SWAP1 PUSH2 0x10BC JUMP JUMPDEST DUP1 PUSH1 0x1F ADD PUSH1 0x20 DUP1 SWAP2 DIV MUL PUSH1 0x20 ADD PUSH1 0x40 MLOAD SWAP1 DUP2 ADD PUSH1 0x40 MSTORE DUP1 SWAP3 SWAP2 SWAP1 DUP2 DUP2 MSTORE PUSH1 0x20 ADD DUP3 DUP1 SLOAD PUSH2 0x29D SWAP1 PUSH2 0x10BC JUMP JUMPDEST DUP1 ISZERO PUSH2 0x2EA JUMPI DUP1 PUSH1 0x1F LT PUSH2 0x2BF JUMPI PUSH2 0x100 DUP1 DUP4 SLOAD DIV MUL DUP4 MSTORE SWAP2 PUSH1 0x20 ADD SWAP2 PUSH2 0x2EA JUMP JUMPDEST DUP3 ADD SWAP2 SWAP1 PUSH1 0x0 MSTORE PUSH1 0x20 PUSH1 0x0 KECCAK256 SWAP1 JUMPDEST DUP2 SLOAD DUP2 MSTORE SWAP1 PUSH1 0x1 ADD SWAP1 PUSH1 0x20 ADD DUP1 DUP4 GT PUSH2 0x2CD JUMPI DUP3 SWAP1 SUB PUSH1 0x1F AND DUP3 ADD SWAP2 JUMPDEST POP POP POP POP POP SWAP1 DUP1 PUSH1 0x2 ADD PUSH1 0x0 SWAP1 SLOAD SWAP1 PUSH2 0x100 EXP SWAP1 DIV PUSH2 0xFFFF AND SWAP1 DUP1 PUSH1 0x3 ADD DUP1 SLOAD PUSH2 0x313 SWAP1 PUSH2 0x10BC JUMP JUMPDEST DUP1 PUSH1 0x1F ADD PUSH1 0x20 DUP1 SWAP2 DIV MUL PUSH1 0x20 ADD PUSH1 0x40 MLOAD SWAP1 DUP2 ADD PUSH1 0x40 MSTORE DUP1 SWAP3 SWAP2 SWAP1 DUP2 DUP2 MSTORE PUSH1 0x20 ADD DUP3 DUP1 SLOAD PUSH2 0x33F SWAP1 PUSH2 0x10BC JUMP JUMPDEST DUP1 ISZERO PUSH2 0x38C JUMPI DUP1 PUSH1 0x1F LT PUSH2 0x361 JUMPI PUSH2 0x100 DUP1 DUP4 SLOAD DIV MUL DUP4 MSTORE SWAP2 PUSH1 0x20 ADD SWAP2 PUSH2 0x38C JUMP JUMPDEST DUP3 ADD SWAP2 SWAP1 PUSH1 0x0 MSTORE PUSH1 0x20 PUSH1 0x0 KECCAK256 SWAP1 JUMPDEST DUP2 SLOAD DUP2 MSTORE SWAP1 PUSH1 0x1 ADD SWAP1 PUSH1 0x20 ADD DUP1 DUP4 GT PUSH2 0x36F JUMPI DUP3 SWAP1 SUB PUSH1 0x1F AND DUP3 ADD SWAP2 JUMPDEST POP POP POP POP POP SWAP1 POP DUP5 JUMP JUMPDEST PUSH2 0x39E PUSH2 0x9DC JUMP JUMPDEST PUSH1 0x0 DUP1 PUSH1 0x0 SWAP1 POP JUMPDEST PUSH1 0x1 DUP1 SLOAD SWAP1 POP DUP2 LT ISZERO PUSH2 0x62B JUMPI DUP4 PUSH2 0xFFFF AND PUSH1 0x1 DUP3 DUP2 SLOAD DUP2 LT PUSH2 0x3F2 JUMPI PUSH32 0x4E487B7100000000000000000000000000000000000000000000000000000000 PUSH1 0x0 MSTORE PUSH1 0x32 PUSH1 0x4 MSTORE PUSH1 0x24 PUSH1 0x0 REVERT JUMPDEST SWAP1 PUSH1 0x0 MSTORE PUSH1 0x20 PUSH1 0x0 KECCAK256 SWAP1 PUSH1 0x4 MUL ADD PUSH1 0x2 ADD PUSH1 0x0 SWAP1 SLOAD SWAP1 PUSH2 0x100 EXP SWAP1 DIV PUSH2 0xFFFF AND PUSH2 0xFFFF AND EQ ISZERO PUSH2 0x618 JUMPI PUSH1 0x1 DUP2 DUP2 SLOAD DUP2 LT PUSH2 0x456 JUMPI PUSH32 0x4E487B7100000000000000000000000000000000000000000000000000000000 PUSH1 0x0 MSTORE PUSH1 0x32 PUSH1 0x4 MSTORE PUSH1 0x24 PUSH1 0x0 REVERT JUMPDEST SWAP1 PUSH1 0x0 MSTORE PUSH1 0x20 PUSH1 0x0 KECCAK256 SWAP1 PUSH1 0x4 MUL ADD PUSH1 0x1 DUP2 PUSH1 0x40 MLOAD DUP1 PUSH1 0x80 ADD PUSH1 0x40 MSTORE SWAP1 DUP2 PUSH1 0x0 DUP3 ADD PUSH1 0x0 SWAP1 SLOAD SWAP1 PUSH2 0x100 EXP SWAP1 DIV PUSH20 0xFFFFFFFFFFFFFFFFFFFFFFFFFFFFFFFFFFFFFFFF AND PUSH20 0xFFFFFFFFFFFFFFFFFFFFFFFFFFFFFFFFFFFFFFFF AND PUSH20 0xFFFFFFFFFFFFFFFFFFFFFFFFFFFFFFFFFFFFFFFF AND DUP2 MSTORE PUSH1 0x20 ADD PUSH1 0x1 DUP3 ADD DUP1 SLOAD PUSH2 0x4D8 SWAP1 PUSH2 0x10BC JUMP JUMPDEST DUP1 PUSH1 0x1F ADD PUSH1 0x20 DUP1 SWAP2 DIV MUL PUSH1 0x20 ADD PUSH1 0x40 MLOAD SWAP1 DUP2 ADD PUSH1 0x40 MSTORE DUP1 SWAP3 SWAP2 SWAP1 DUP2 DUP2 MSTORE PUSH1 0x20 ADD DUP3 DUP1 SLOAD PUSH2 0x504 SWAP1 PUSH2 0x10BC JUMP JUMPDEST DUP1 ISZERO PUSH2 0x551 JUMPI DUP1 PUSH1 0x1F LT PUSH2 0x526 JUMPI PUSH2 0x100 DUP1 DUP4 SLOAD DIV MUL DUP4 MSTORE SWAP2 PUSH1 0x20 ADD SWAP2 PUSH2 0x551 JUMP JUMPDEST DUP3 ADD SWAP2 SWAP1 PUSH1 0x0 MSTORE PUSH1 0x20 PUSH1 0x0 KECCAK256 SWAP1 JUMPDEST DUP2 SLOAD DUP2 MSTORE SWAP1 PUSH1 0x1 ADD SWAP1 PUSH1 0x20 ADD DUP1 DUP4 GT PUSH2 0x534 JUMPI DUP3 SWAP1 SUB PUSH1 0x1F AND DUP3 ADD SWAP2 JUMPDEST POP POP POP POP POP DUP2 MSTORE PUSH1 0x20 ADD PUSH1 0x2 DUP3 ADD PUSH1 0x0 SWAP1 SLOAD SWAP1 PUSH2 0x100 EXP SWAP1 DIV PUSH2 0xFFFF AND PUSH2 0xFFFF AND PUSH2 0xFFFF AND DUP2 MSTORE PUSH1 0x20 ADD PUSH1 0x3 DUP3 ADD DUP1 SLOAD PUSH2 0x58A SWAP1 PUSH2 0x10BC JUMP JUMPDEST DUP1 PUSH1 0x1F ADD PUSH1 0x20 DUP1 SWAP2 DIV MUL PUSH1 0x20 ADD PUSH1 0x40 MLOAD SWAP1 DUP2 ADD PUSH1 0x40 MSTORE DUP1 SWAP3 SWAP2 SWAP1 DUP2 DUP2 MSTORE PUSH1 0x20 ADD DUP3 DUP1 SLOAD PUSH2 0x5B6 SWAP1 PUSH2 0x10BC JUMP JUMPDEST DUP1 ISZERO PUSH2 0x603 JUMPI DUP1 PUSH1 0x1F LT PUSH2 0x5D8 JUMPI PUSH2 0x100 DUP1 DUP4 SLOAD DIV MUL DUP4 MSTORE SWAP2 PUSH1 0x20 ADD SWAP2 PUSH2 0x603 JUMP JUMPDEST DUP3 ADD SWAP2 SWAP1 PUSH1 0x0 MSTORE PUSH1 0x20 PUSH1 0x0 KECCAK256 SWAP1 JUMPDEST DUP2 SLOAD DUP2 MSTORE SWAP1 PUSH1 0x1 ADD SWAP1 PUSH1 0x20 ADD DUP1 DUP4 GT PUSH2 0x5E6 JUMPI DUP3 SWAP1 SUB PUSH1 0x1F AND DUP3 ADD SWAP2 JUMPDEST POP POP POP POP POP DUP2 MSTORE POP POP SWAP2 POP SWAP3 POP SWAP3 POP POP PUSH2 0x68E JUMP JUMPDEST DUP1 DUP1 PUSH2 0x623 SWAP1 PUSH2 0x10EE JUMP JUMPDEST SWAP2 POP POP PUSH2 0x3A6 JUMP JUMPDEST POP PUSH1 0x40 MLOAD DUP1 PUSH1 0x80 ADD PUSH1 0x40 MSTORE DUP1 PUSH1 0x0 PUSH20 0xFFFFFFFFFFFFFFFFFFFFFFFFFFFFFFFFFFFFFFFF AND DUP2 MSTORE PUSH1 0x20 ADD PUSH1 0x40 MLOAD DUP1 PUSH1 0x20 ADD PUSH1 0x40 MSTORE DUP1 PUSH1 0x0 DUP2 MSTORE POP DUP2 MSTORE PUSH1 0x20 ADD PUSH1 0x0 PUSH2 0xFFFF AND DUP2 MSTORE PUSH1 0x20 ADD PUSH1 0x40 MLOAD DUP1 PUSH1 0x20 ADD PUSH1 0x40 MSTORE DUP1 PUSH1 0x0 DUP2 MSTORE POP DUP2 MSTORE POP PUSH1 0x0 SWAP2 POP SWAP2 POP JUMPDEST SWAP2 POP SWAP2 JUMP JUMPDEST DUP1 PUSH1 0x0 SWAP1 DUP1 MLOAD SWAP1 PUSH1 0x20 ADD SWAP1 PUSH2 0x6A9 SWAP3 SWAP2 SWAP1 PUSH2 0xA1E JUMP JUMPDEST POP POP JUMP JUMPDEST PUSH2 0x6B6 DUP2 PUSH2 0x8FC JUMP JUMPDEST PUSH2 0x6F5 JUMPI PUSH1 0x40 MLOAD PUSH32 0x8C379A000000000000000000000000000000000000000000000000000000000 DUP2 MSTORE PUSH1 0x4 ADD PUSH2 0x6EC SWAP1 PUSH2 0xF24 JUMP JUMPDEST PUSH1 0x40 MLOAD DUP1 SWAP2 SUB SWAP1 REVERT JUMPDEST PUSH1 0x1 DUP2 SWAP1 DUP1 PUSH1 0x1 DUP2 SLOAD ADD DUP1 DUP3 SSTORE DUP1 SWAP2 POP POP PUSH1 0x1 SWAP1 SUB SWAP1 PUSH1 0x0 MSTORE PUSH1 0x20 PUSH1 0x0 KECCAK256 SWAP1 PUSH1 0x4 MUL ADD PUSH1 0x0 SWAP1 SWAP2 SWAP1 SWAP2 SWAP1 SWAP2 POP PUSH1 0x0 DUP3 ADD MLOAD DUP2 PUSH1 0x0 ADD PUSH1 0x0 PUSH2 0x100 EXP DUP2 SLOAD DUP2 PUSH20 0xFFFFFFFFFFFFFFFFFFFFFFFFFFFFFFFFFFFFFFFF MUL NOT AND SWAP1 DUP4 PUSH20 0xFFFFFFFFFFFFFFFFFFFFFFFFFFFFFFFFFFFFFFFF AND MUL OR SWAP1 SSTORE POP PUSH1 0x20 DUP3 ADD MLOAD DUP2 PUSH1 0x1 ADD SWAP1 DUP1 MLOAD SWAP1 PUSH1 0x20 ADD SWAP1 PUSH2 0x784 SWAP3 SWAP2 SWAP1 PUSH2 0xA1E JUMP JUMPDEST POP PUSH1 0x40 DUP3 ADD MLOAD DUP2 PUSH1 0x2 ADD PUSH1 0x0 PUSH2 0x100 EXP DUP2 SLOAD DUP2 PUSH2 0xFFFF MUL NOT AND SWAP1 DUP4 PUSH2 0xFFFF AND MUL OR SWAP1 SSTORE POP PUSH1 0x60 DUP3 ADD MLOAD DUP2 PUSH1 0x3 ADD SWAP1 DUP1 MLOAD SWAP1 PUSH1 0x20 ADD SWAP1 PUSH2 0x7C4 SWAP3 SWAP2 SWAP1 PUSH2 0xA1E JUMP JUMPDEST POP POP POP POP JUMP JUMPDEST PUSH2 0x7D2 PUSH2 0xAA4 JUMP JUMPDEST PUSH1 0x0 PUSH2 0x7DD DUP4 PUSH2 0x396 JUMP JUMPDEST SWAP2 POP POP DUP1 PUSH2 0x83A JUMPI PUSH1 0x40 MLOAD DUP1 PUSH1 0x40 ADD PUSH1 0x40 MSTORE DUP1 PUSH1 0x0 ISZERO ISZERO DUP2 MSTORE PUSH1 0x20 ADD PUSH1 0x40 MLOAD DUP1 PUSH1 0x40 ADD PUSH1 0x40 MSTORE DUP1 PUSH1 0x14 DUP2 MSTORE PUSH1 0x20 ADD PUSH32 0x43616E646964617465206E6F7420666F756E6421000000000000000000000000 DUP2 MSTORE POP DUP2 MSTORE POP SWAP2 POP POP PUSH2 0x865 JUMP JUMPDEST PUSH1 0x40 MLOAD DUP1 PUSH1 0x40 ADD PUSH1 0x40 MSTORE DUP1 PUSH1 0x1 ISZERO ISZERO DUP2 MSTORE PUSH1 0x20 ADD PUSH1 0x40 MLOAD DUP1 PUSH1 0x20 ADD PUSH1 0x40 MSTORE DUP1 PUSH1 0x0 DUP2 MSTORE POP DUP2 MSTORE POP SWAP2 POP POP JUMPDEST SWAP2 SWAP1 POP JUMP JUMPDEST PUSH1 0x60 PUSH1 0x0 DUP1 SLOAD PUSH2 0x879 SWAP1 PUSH2 0x10BC JUMP JUMPDEST DUP1 PUSH1 0x1F ADD PUSH1 0x20 DUP1 SWAP2 DIV MUL PUSH1 0x20 ADD PUSH1 0x40 MLOAD SWAP1 DUP2 ADD PUSH1 0x40 MSTORE DUP1 SWAP3 SWAP2 SWAP1 DUP2 DUP2 MSTORE PUSH1 0x20 ADD DUP3 DUP1 SLOAD PUSH2 0x8A5 SWAP1 PUSH2 0x10BC JUMP JUMPDEST DUP1 ISZERO PUSH2 0x8F2 JUMPI DUP1 PUSH1 0x1F LT PUSH2 0x8C7 JUMPI PUSH2 0x100 DUP1 DUP4 SLOAD DIV MUL DUP4 MSTORE SWAP2 PUSH1 0x20 ADD SWAP2 PUSH2 0x8F2 JUMP JUMPDEST DUP3 ADD SWAP2 SWAP1 PUSH1 0x0 MSTORE PUSH1 0x20 PUSH1 0x0 KECCAK256 SWAP1 JUMPDEST DUP2 SLOAD DUP2 MSTORE SWAP1 PUSH1 0x1 ADD SWAP1 PUSH1 0x20 ADD DUP1 DUP4 GT PUSH2 0x8D5 JUMPI DUP3 SWAP1 SUB PUSH1 0x1F AND DUP3 ADD SWAP2 JUMPDEST POP POP POP POP POP SWAP1 POP SWAP1 JUMP JUMPDEST PUSH1 0x0 DUP1 PUSH1 0x0 SWAP1 POP JUMPDEST PUSH1 0x1 DUP1 SLOAD SWAP1 POP DUP2 LT ISZERO PUSH2 0x9D1 JUMPI PUSH1 0x1 DUP2 DUP2 SLOAD DUP2 LT PUSH2 0x94B JUMPI PUSH32 0x4E487B7100000000000000000000000000000000000000000000000000000000 PUSH1 0x0 MSTORE PUSH1 0x32 PUSH1 0x4 MSTORE PUSH1 0x24 PUSH1 0x0 REVERT JUMPDEST SWAP1 PUSH1 0x0 MSTORE PUSH1 0x20 PUSH1 0x0 KECCAK256 SWAP1 PUSH1 0x4 MUL ADD PUSH1 0x0 ADD PUSH1 0x0 SWAP1 SLOAD SWAP1 PUSH2 0x100 EXP SWAP1 DIV PUSH20 0xFFFFFFFFFFFFFFFFFFFFFFFFFFFFFFFFFFFFFFFF AND PUSH20 0xFFFFFFFFFFFFFFFFFFFFFFFFFFFFFFFFFFFFFFFF AND DUP4 PUSH1 0x0 ADD MLOAD PUSH20 0xFFFFFFFFFFFFFFFFFFFFFFFFFFFFFFFFFFFFFFFF AND EQ ISZERO PUSH2 0x9BE JUMPI PUSH1 0x0 SWAP2 POP POP PUSH2 0x9D7 JUMP JUMPDEST DUP1 DUP1 PUSH2 0x9C9 SWAP1 PUSH2 0x10EE JUMP JUMPDEST SWAP2 POP POP PUSH2 0x904 JUMP JUMPDEST POP PUSH1 0x1 SWAP1 POP JUMPDEST SWAP2 SWAP1 POP JUMP JUMPDEST PUSH1 0x40 MLOAD DUP1 PUSH1 0x80 ADD PUSH1 0x40 MSTORE DUP1 PUSH1 0x0 PUSH20 0xFFFFFFFFFFFFFFFFFFFFFFFFFFFFFFFFFFFFFFFF AND DUP2 MSTORE PUSH1 0x20 ADD PUSH1 0x60 DUP2 MSTORE PUSH1 0x20 ADD PUSH1 0x0 PUSH2 0xFFFF AND DUP2 MSTORE PUSH1 0x20 ADD PUSH1 0x60 DUP2 MSTORE POP SWAP1 JUMP JUMPDEST DUP3 DUP1 SLOAD PUSH2 0xA2A SWAP1 PUSH2 0x10BC JUMP JUMPDEST SWAP1 PUSH1 0x0 MSTORE PUSH1 0x20 PUSH1 0x0 KECCAK256 SWAP1 PUSH1 0x1F ADD PUSH1 0x20 SWAP1 DIV DUP2 ADD SWAP3 DUP3 PUSH2 0xA4C JUMPI PUSH1 0x0 DUP6 SSTORE PUSH2 0xA93 JUMP JUMPDEST DUP3 PUSH1 0x1F LT PUSH2 0xA65 JUMPI DUP1 MLOAD PUSH1 0xFF NOT AND DUP4 DUP1 ADD OR DUP6 SSTORE PUSH2 0xA93 JUMP JUMPDEST DUP3 DUP1 ADD PUSH1 0x1 ADD DUP6 SSTORE DUP3 ISZERO PUSH2 0xA93 JUMPI SWAP2 DUP3 ADD JUMPDEST DUP3 DUP2 GT ISZERO PUSH2 0xA92 JUMPI DUP3 MLOAD DUP3 SSTORE SWAP2 PUSH1 0x20 ADD SWAP2 SWAP1 PUSH1 0x1 ADD SWAP1 PUSH2 0xA77 JUMP JUMPDEST JUMPDEST POP SWAP1 POP PUSH2 0xAA0 SWAP2 SWAP1 PUSH2 0xAC0 JUMP JUMPDEST POP SWAP1 JUMP JUMPDEST PUSH1 0x40 MLOAD DUP1 PUSH1 0x40 ADD PUSH1 0x40 MSTORE DUP1 PUSH1 0x0 ISZERO ISZERO DUP2 MSTORE PUSH1 0x20 ADD PUSH1 0x60 DUP2 MSTORE POP SWAP1 JUMP JUMPDEST JUMPDEST DUP1 DUP3 GT ISZERO PUSH2 0xAD9 JUMPI PUSH1 0x0 DUP2 PUSH1 0x0 SWAP1 SSTORE POP PUSH1 0x1 ADD PUSH2 0xAC1 JUMP JUMPDEST POP SWAP1 JUMP JUMPDEST PUSH1 0x0 PUSH2 0xAF0 PUSH2 0xAEB DUP5 PUSH2 0xFC7 JUMP JUMPDEST PUSH2 0xF96 JUMP JUMPDEST SWAP1 POP DUP3 DUP2 MSTORE PUSH1 0x20 DUP2 ADD DUP5 DUP5 DUP5 ADD GT ISZERO PUSH2 0xB08 JUMPI PUSH1 0x0 DUP1 REVERT JUMPDEST PUSH2 0xB13 DUP5 DUP3 DUP6 PUSH2 0x107A JUMP JUMPDEST POP SWAP4 SWAP3 POP POP POP JUMP JUMPDEST PUSH1 0x0 DUP2 CALLDATALOAD SWAP1 POP PUSH2 0xB2A DUP2 PUSH2 0x11D5 JUMP JUMPDEST SWAP3 SWAP2 POP POP JUMP JUMPDEST PUSH1 0x0 DUP3 PUSH1 0x1F DUP4 ADD SLT PUSH2 0xB41 JUMPI PUSH1 0x0 DUP1 REVERT JUMPDEST DUP2 CALLDATALOAD PUSH2 0xB51 DUP5 DUP3 PUSH1 0x20 DUP7 ADD PUSH2 0xADD JUMP JUMPDEST SWAP2 POP POP SWAP3 SWAP2 POP POP JUMP JUMPDEST PUSH1 0x0 PUSH1 0x80 DUP3 DUP5 SUB SLT ISZERO PUSH2 0xB6C JUMPI PUSH1 0x0 DUP1 REVERT JUMPDEST PUSH2 0xB76 PUSH1 0x80 PUSH2 0xF96 JUMP JUMPDEST SWAP1 POP PUSH1 0x0 PUSH2 0xB86 DUP5 DUP3 DUP6 ADD PUSH2 0xB1B JUMP JUMPDEST PUSH1 0x0 DUP4 ADD MSTORE POP PUSH1 0x20 DUP3 ADD CALLDATALOAD PUSH8 0xFFFFFFFFFFFFFFFF DUP2 GT ISZERO PUSH2 0xBA6 JUMPI PUSH1 0x0 DUP1 REVERT JUMPDEST PUSH2 0xBB2 DUP5 DUP3 DUP6 ADD PUSH2 0xB30 JUMP JUMPDEST PUSH1 0x20 DUP4 ADD MSTORE POP PUSH1 0x40 PUSH2 0xBC6 DUP5 DUP3 DUP6 ADD PUSH2 0xBFE JUMP JUMPDEST PUSH1 0x40 DUP4 ADD MSTORE POP PUSH1 0x60 DUP3 ADD CALLDATALOAD PUSH8 0xFFFFFFFFFFFFFFFF DUP2 GT ISZERO PUSH2 0xBE6 JUMPI PUSH1 0x0 DUP1 REVERT JUMPDEST PUSH2 0xBF2 DUP5 DUP3 DUP6 ADD PUSH2 0xB30 JUMP JUMPDEST PUSH1 0x60 DUP4 ADD MSTORE POP SWAP3 SWAP2 POP POP JUMP JUMPDEST PUSH1 0x0 DUP2 CALLDATALOAD SWAP1 POP PUSH2 0xC0D DUP2 PUSH2 0x11EC JUMP JUMPDEST SWAP3 SWAP2 POP POP JUMP JUMPDEST PUSH1 0x0 DUP2 CALLDATALOAD SWAP1 POP PUSH2 0xC22 DUP2 PUSH2 0x1203 JUMP JUMPDEST SWAP3 SWAP2 POP POP JUMP JUMPDEST PUSH1 0x0 PUSH1 0x20 DUP3 DUP5 SUB SLT ISZERO PUSH2 0xC3A JUMPI PUSH1 0x0 DUP1 REVERT JUMPDEST PUSH1 0x0 DUP3 ADD CALLDATALOAD PUSH8 0xFFFFFFFFFFFFFFFF DUP2 GT ISZERO PUSH2 0xC54 JUMPI PUSH1 0x0 DUP1 REVERT JUMPDEST PUSH2 0xC60 DUP5 DUP3 DUP6 ADD PUSH2 0xB30 JUMP JUMPDEST SWAP2 POP POP SWAP3 SWAP2 POP POP JUMP JUMPDEST PUSH1 0x0 PUSH1 0x20 DUP3 DUP5 SUB SLT ISZERO PUSH2 0xC7B JUMPI PUSH1 0x0 DUP1 REVERT JUMPDEST PUSH1 0x0 DUP3 ADD CALLDATALOAD PUSH8 0xFFFFFFFFFFFFFFFF DUP2 GT ISZERO PUSH2 0xC95 JUMPI PUSH1 0x0 DUP1 REVERT JUMPDEST PUSH2 0xCA1 DUP5 DUP3 DUP6 ADD PUSH2 0xB5A JUMP JUMPDEST SWAP2 POP POP SWAP3 SWAP2 POP POP JUMP JUMPDEST PUSH1 0x0 PUSH1 0x20 DUP3 DUP5 SUB SLT ISZERO PUSH2 0xCBC JUMPI PUSH1 0x0 DUP1 REVERT JUMPDEST PUSH1 0x0 PUSH2 0xCCA DUP5 DUP3 DUP6 ADD PUSH2 0xBFE JUMP JUMPDEST SWAP2 POP POP SWAP3 SWAP2 POP POP JUMP JUMPDEST PUSH1 0x0 PUSH1 0x20 DUP3 DUP5 SUB SLT ISZERO PUSH2 0xCE5 JUMPI PUSH1 0x0 DUP1 REVERT JUMPDEST PUSH1 0x0 PUSH2 0xCF3 DUP5 DUP3 DUP6 ADD PUSH2 0xC13 JUMP JUMPDEST SWAP2 POP POP SWAP3 SWAP2 POP POP JUMP JUMPDEST PUSH2 0xD05 DUP2 PUSH2 0x1024 JUMP JUMPDEST DUP3 MSTORE POP POP JUMP JUMPDEST PUSH2 0xD14 DUP2 PUSH2 0x1024 JUMP JUMPDEST DUP3 MSTORE POP POP JUMP JUMPDEST PUSH2 0xD23 DUP2 PUSH2 0x1036 JUMP JUMPDEST DUP3 MSTORE POP POP JUMP JUMPDEST PUSH2 0xD32 DUP2 PUSH2 0x1036 JUMP JUMPDEST DUP3 MSTORE POP POP JUMP JUMPDEST PUSH1 0x0 PUSH2 0xD43 DUP3 PUSH2 0xFF7 JUMP JUMPDEST PUSH2 0xD4D DUP2 DUP6 PUSH2 0x1002 JUMP JUMPDEST SWAP4 POP PUSH2 0xD5D DUP2 DUP6 PUSH1 0x20 DUP7 ADD PUSH2 0x1089 JUMP JUMPDEST PUSH2 0xD66 DUP2 PUSH2 0x11C4 JUMP JUMPDEST DUP5 ADD SWAP2 POP POP SWAP3 SWAP2 POP POP JUMP JUMPDEST PUSH1 0x0 PUSH2 0xD7C DUP3 PUSH2 0xFF7 JUMP JUMPDEST PUSH2 0xD86 DUP2 DUP6 PUSH2 0x1013 JUMP JUMPDEST SWAP4 POP PUSH2 0xD96 DUP2 DUP6 PUSH1 0x20 DUP7 ADD PUSH2 0x1089 JUMP JUMPDEST PUSH2 0xD9F DUP2 PUSH2 0x11C4 JUMP JUMPDEST DUP5 ADD SWAP2 POP POP SWAP3 SWAP2 POP POP JUMP JUMPDEST PUSH1 0x0 PUSH2 0xDB7 PUSH1 0x1A DUP4 PUSH2 0x1013 JUMP JUMPDEST SWAP2 POP PUSH32 0x43616E64696461746520696E70757420697320696E76616C6964000000000000 PUSH1 0x0 DUP4 ADD MSTORE PUSH1 0x20 DUP3 ADD SWAP1 POP SWAP2 SWAP1 POP JUMP JUMPDEST PUSH1 0x0 PUSH1 0x80 DUP4 ADD PUSH1 0x0 DUP4 ADD MLOAD PUSH2 0xE02 PUSH1 0x0 DUP7 ADD DUP3 PUSH2 0xCFC JUMP JUMPDEST POP PUSH1 0x20 DUP4 ADD MLOAD DUP5 DUP3 SUB PUSH1 0x20 DUP7 ADD MSTORE PUSH2 0xE1A DUP3 DUP3 PUSH2 0xD38 JUMP JUMPDEST SWAP2 POP POP PUSH1 0x40 DUP4 ADD MLOAD PUSH2 0xE2F PUSH1 0x40 DUP7 ADD DUP3 PUSH2 0xE91 JUMP JUMPDEST POP PUSH1 0x60 DUP4 ADD MLOAD DUP5 DUP3 SUB PUSH1 0x60 DUP7 ADD MSTORE PUSH2 0xE47 DUP3 DUP3 PUSH2 0xD38 JUMP JUMPDEST SWAP2 POP POP DUP1 SWAP2 POP POP SWAP3 SWAP2 POP POP JUMP JUMPDEST PUSH1 0x0 PUSH1 0x40 DUP4 ADD PUSH1 0x0 DUP4 ADD MLOAD PUSH2 0xE6C PUSH1 0x0 DUP7 ADD DUP3 PUSH2 0xD1A JUMP JUMPDEST POP PUSH1 0x20 DUP4 ADD MLOAD DUP5 DUP3 SUB PUSH1 0x20 DUP7 ADD MSTORE PUSH2 0xE84 DUP3 DUP3 PUSH2 0xD38 JUMP JUMPDEST SWAP2 POP POP DUP1 SWAP2 POP POP SWAP3 SWAP2 POP POP JUMP JUMPDEST PUSH2 0xE9A DUP2 PUSH2 0x1042 JUMP JUMPDEST DUP3 MSTORE POP POP JUMP JUMPDEST PUSH2 0xEA9 DUP2 PUSH2 0x1042 JUMP JUMPDEST DUP3 MSTORE POP POP JUMP JUMPDEST PUSH1 0x0 PUSH1 0x80 DUP3 ADD SWAP1 POP PUSH2 0xEC4 PUSH1 0x0 DUP4 ADD DUP8 PUSH2 0xD0B JUMP JUMPDEST DUP2 DUP2 SUB PUSH1 0x20 DUP4 ADD MSTORE PUSH2 0xED6 DUP2 DUP7 PUSH2 0xD71 JUMP JUMPDEST SWAP1 POP PUSH2 0xEE5 PUSH1 0x40 DUP4 ADD DUP6 PUSH2 0xEA0 JUMP JUMPDEST DUP2 DUP2 SUB PUSH1 0x60 DUP4 ADD MSTORE PUSH2 0xEF7 DUP2 DUP5 PUSH2 0xD71 JUMP JUMPDEST SWAP1 POP SWAP6 SWAP5 POP POP POP POP POP JUMP JUMPDEST PUSH1 0x0 PUSH1 0x20 DUP3 ADD SWAP1 POP DUP2 DUP2 SUB PUSH1 0x0 DUP4 ADD MSTORE PUSH2 0xF1C DUP2 DUP5 PUSH2 0xD71 JUMP JUMPDEST SWAP1 POP SWAP3 SWAP2 POP POP JUMP JUMPDEST PUSH1 0x0 PUSH1 0x20 DUP3 ADD SWAP1 POP DUP2 DUP2 SUB PUSH1 0x0 DUP4 ADD MSTORE PUSH2 0xF3D DUP2 PUSH2 0xDAA JUMP JUMPDEST SWAP1 POP SWAP2 SWAP1 POP JUMP JUMPDEST PUSH1 0x0 PUSH1 0x40 DUP3 ADD SWAP1 POP DUP2 DUP2 SUB PUSH1 0x0 DUP4 ADD MSTORE PUSH2 0xF5E DUP2 DUP6 PUSH2 0xDEA JUMP JUMPDEST SWAP1 POP PUSH2 0xF6D PUSH1 0x20 DUP4 ADD DUP5 PUSH2 0xD29 JUMP JUMPDEST SWAP4 SWAP3 POP POP POP JUMP JUMPDEST PUSH1 0x0 PUSH1 0x20 DUP3 ADD SWAP1 POP DUP2 DUP2 SUB PUSH1 0x0 DUP4 ADD MSTORE PUSH2 0xF8E DUP2 DUP5 PUSH2 0xE54 JUMP JUMPDEST SWAP1 POP SWAP3 SWAP2 POP POP JUMP JUMPDEST PUSH1 0x0 PUSH1 0x40 MLOAD SWAP1 POP DUP2 DUP2 ADD DUP2 DUP2 LT PUSH8 0xFFFFFFFFFFFFFFFF DUP3 GT OR ISZERO PUSH2 0xFBD JUMPI PUSH2 0xFBC PUSH2 0x1195 JUMP JUMPDEST JUMPDEST DUP1 PUSH1 0x40 MSTORE POP SWAP2 SWAP1 POP JUMP JUMPDEST PUSH1 0x0 PUSH8 0xFFFFFFFFFFFFFFFF DUP3 GT ISZERO PUSH2 0xFE2 JUMPI PUSH2 0xFE1 PUSH2 0x1195 JUMP JUMPDEST JUMPDEST PUSH1 0x1F NOT PUSH1 0x1F DUP4 ADD AND SWAP1 POP PUSH1 0x20 DUP2 ADD SWAP1 POP SWAP2 SWAP1 POP JUMP JUMPDEST PUSH1 0x0 DUP2 MLOAD SWAP1 POP SWAP2 SWAP1 POP JUMP JUMPDEST PUSH1 0x0 DUP3 DUP3 MSTORE PUSH1 0x20 DUP3 ADD SWAP1 POP SWAP3 SWAP2 POP POP JUMP JUMPDEST PUSH1 0x0 DUP3 DUP3 MSTORE PUSH1 0x20 DUP3 ADD SWAP1 POP SWAP3 SWAP2 POP POP JUMP JUMPDEST PUSH1 0x0 PUSH2 0x102F DUP3 PUSH2 0x1050 JUMP JUMPDEST SWAP1 POP SWAP2 SWAP1 POP JUMP JUMPDEST PUSH1 0x0 DUP2 ISZERO ISZERO SWAP1 POP SWAP2 SWAP1 POP JUMP JUMPDEST PUSH1 0x0 PUSH2 0xFFFF DUP3 AND SWAP1 POP SWAP2 SWAP1 POP JUMP JUMPDEST PUSH1 0x0 PUSH20 0xFFFFFFFFFFFFFFFFFFFFFFFFFFFFFFFFFFFFFFFF DUP3 AND SWAP1 POP SWAP2 SWAP1 POP JUMP JUMPDEST PUSH1 0x0 DUP2 SWAP1 POP SWAP2 SWAP1 POP JUMP JUMPDEST DUP3 DUP2 DUP4 CALLDATACOPY PUSH1 0x0 DUP4 DUP4 ADD MSTORE POP POP POP JUMP JUMPDEST PUSH1 0x0 JUMPDEST DUP4 DUP2 LT ISZERO PUSH2 0x10A7 JUMPI DUP1 DUP3 ADD MLOAD DUP2 DUP5 ADD MSTORE PUSH1 0x20 DUP2 ADD SWAP1 POP PUSH2 0x108C JUMP JUMPDEST DUP4 DUP2 GT ISZERO PUSH2 0x10B6 JUMPI PUSH1 0x0 DUP5 DUP5 ADD MSTORE JUMPDEST POP POP POP POP JUMP JUMPDEST PUSH1 0x0 PUSH1 0x2 DUP3 DIV SWAP1 POP PUSH1 0x1 DUP3 AND DUP1 PUSH2 0x10D4 JUMPI PUSH1 0x7F DUP3 AND SWAP2 POP JUMPDEST PUSH1 0x20 DUP3 LT DUP2 EQ ISZERO PUSH2 0x10E8 JUMPI PUSH2 0x10E7 PUSH2 0x1166 JUMP JUMPDEST JUMPDEST POP SWAP2 SWAP1 POP JUMP JUMPDEST PUSH1 0x0 PUSH2 0x10F9 DUP3 PUSH2 0x1070 JUMP JUMPDEST SWAP2 POP PUSH32 0xFFFFFFFFFFFFFFFFFFFFFFFFFFFFFFFFFFFFFFFFFFFFFFFFFFFFFFFFFFFFFFFF DUP3 EQ ISZERO PUSH2 0x112C JUMPI PUSH2 0x112B PUSH2 0x1137 JUMP JUMPDEST JUMPDEST PUSH1 0x1 DUP3 ADD SWAP1 POP SWAP2 SWAP1 POP JUMP JUMPDEST PUSH32 0x4E487B7100000000000000000000000000000000000000000000000000000000 PUSH1 0x0 MSTORE PUSH1 0x11 PUSH1 0x4 MSTORE PUSH1 0x24 PUSH1 0x0 REVERT JUMPDEST PUSH32 0x4E487B7100000000000000000000000000000000000000000000000000000000 PUSH1 0x0 MSTORE PUSH1 0x22 PUSH1 0x4 MSTORE PUSH1 0x24 PUSH1 0x0 REVERT JUMPDEST PUSH32 0x4E487B7100000000000000000000000000000000000000000000000000000000 PUSH1 0x0 MSTORE PUSH1 0x41 PUSH1 0x4 MSTORE PUSH1 0x24 PUSH1 0x0 REVERT JUMPDEST PUSH1 0x0 PUSH1 0x1F NOT PUSH1 0x1F DUP4 ADD AND SWAP1 POP SWAP2 SWAP1 POP JUMP JUMPDEST PUSH2 0x11DE DUP2 PUSH2 0x1024 JUMP JUMPDEST DUP2 EQ PUSH2 0x11E9 JUMPI PUSH1 0x0 DUP1 REVERT JUMPDEST POP JUMP JUMPDEST PUSH2 0x11F5 DUP2 PUSH2 0x1042 JUMP JUMPDEST DUP2 EQ PUSH2 0x1200 JUMPI PUSH1 0x0 DUP1 REVERT JUMPDEST POP JUMP JUMPDEST PUSH2 0x120C DUP2 PUSH2 0x1070 JUMP JUMPDEST DUP2 EQ PUSH2 0x1217 JUMPI PUSH1 0x0 DUP1 REVERT JUMPDEST POP JUMP INVALID LOG2 PUSH5 0x6970667358 0x22 SLT KECCAK256 SHR PUSH3 0xE087A3 0xE0 MUL MUL COINBASE 0x4B SSTORE STATICCALL 0xB1 POP NUMBER PUSH30 0xD9DB4F9EED775ED4C2BDD1A8EFCB2A7664736F6C63430008000033000000 "
				},
				"gasEstimates": {
					"creation": {
						"codeDepositCost": "937600",
						"executionCost": "975",
						"totalCost": "938575"
					},
					"external": {
						"candidates(uint256)": "infinite",
						"getCandidateByNumber(uint16)": "infinite",
						"getRole()": "infinite",
						"role()": "infinite",
						"setCandidate((address,string,uint16,string))": "infinite",
						"setRole(string)": "infinite",
						"vote(uint16)": "infinite"
					},
					"internal": {
						"candidateRegisterIsValid(struct Election.Candidate memory)": "infinite"
					}
				},
				"methodIdentifiers": {
					"candidates(uint256)": "3477ee2e",
					"getCandidateByNumber(uint16)": "74c53f56",
					"getRole()": "fde08174",
					"role()": "10055c1d",
					"setCandidate((address,string,uint16,string))": "ce21f15a",
					"setRole(string)": "8e0cfbc2",
					"vote(uint16)": "ddb6e116"
				}
			},
			"storageLayout": {
				"storage": [
					{
						"astId": 3,
						"contract": "contracts/Election.sol:Election",
						"label": "role",
						"offset": 0,
						"slot": "0",
						"type": "t_string_storage"
					},
					{
						"astId": 7,
						"contract": "contracts/Election.sol:Election",
						"label": "candidates",
						"offset": 0,
						"slot": "1",
						"type": "t_array(t_struct(Candidate)18_storage)dyn_storage"
					},
					{
						"astId": 9,
						"contract": "contracts/Election.sol:Election",
						"label": "votesCount",
						"offset": 0,
						"slot": "2",
						"type": "t_uint256"
					}
				],
				"types": {
					"t_address": {
						"encoding": "inplace",
						"label": "address",
						"numberOfBytes": "20"
					},
					"t_array(t_struct(Candidate)18_storage)dyn_storage": {
						"base": "t_struct(Candidate)18_storage",
						"encoding": "dynamic_array",
						"label": "struct Election.Candidate[]",
						"numberOfBytes": "32"
					},
					"t_string_storage": {
						"encoding": "bytes",
						"label": "string",
						"numberOfBytes": "32"
					},
					"t_struct(Candidate)18_storage": {
						"encoding": "inplace",
						"label": "struct Election.Candidate",
						"members": [
							{
								"astId": 11,
								"contract": "contracts/Election.sol:Election",
								"label": "id",
								"offset": 0,
								"slot": "0",
								"type": "t_address"
							},
							{
								"astId": 13,
								"contract": "contracts/Election.sol:Election",
								"label": "name",
								"offset": 0,
								"slot": "1",
								"type": "t_string_storage"
							},
							{
								"astId": 15,
								"contract": "contracts/Election.sol:Election",
								"label": "voteNumber",
								"offset": 0,
								"slot": "2",
								"type": "t_uint16"
							},
							{
								"astId": 17,
								"contract": "contracts/Election.sol:Election",
								"label": "party",
								"offset": 0,
								"slot": "3",
								"type": "t_string_storage"
							}
						],
						"numberOfBytes": "128"
					},
					"t_uint16": {
						"encoding": "inplace",
						"label": "uint16",
						"numberOfBytes": "2"
					},
					"t_uint256": {
						"encoding": "inplace",
						"label": "uint256",
						"numberOfBytes": "32"
					}
				}
			},
			"userdoc": {
				"kind": "user",
				"methods": {},
				"version": 1
			}
		}
	}
}